{
  "contractName": "RawMaterial",
  "abi": [
    {
      "inputs": [
        {
          "internalType": "address",
          "name": "_creatorAddr",
          "type": "address"
        },
        {
          "internalType": "address",
          "name": "_productid",
          "type": "address"
        },
        {
          "internalType": "bytes32",
          "name": "_description",
          "type": "bytes32"
        },
        {
          "internalType": "uint256",
          "name": "_quantity",
          "type": "uint256"
        },
        {
          "internalType": "address",
          "name": "_transporterAddr",
          "type": "address"
        },
        {
          "internalType": "address",
          "name": "_manufacturerAddr",
          "type": "address"
        }
      ],
      "stateMutability": "nonpayable",
      "type": "constructor"
    },
    {
      "anonymous": false,
      "inputs": [
        {
          "indexed": true,
          "internalType": "address",
          "name": "ProductID",
          "type": "address"
        },
        {
          "indexed": true,
          "internalType": "address",
          "name": "Transporter",
          "type": "address"
        },
        {
          "indexed": true,
          "internalType": "address",
          "name": "Manufacturer",
          "type": "address"
        },
        {
          "indexed": false,
          "internalType": "uint256",
          "name": "TransporterType",
          "type": "uint256"
        },
        {
          "indexed": false,
          "internalType": "uint256",
          "name": "Status",
          "type": "uint256"
        }
      ],
      "name": "ShippmentUpdate",
      "type": "event"
    },
    {
      "inputs": [],
      "name": "supplier",
      "outputs": [
        {
          "internalType": "address",
          "name": "",
          "type": "address"
        }
      ],
      "stateMutability": "view",
      "type": "function"
    },
    {
      "inputs": [],
      "name": "getSuppliedRawMaterials",
      "outputs": [
        {
          "internalType": "address",
          "name": "",
          "type": "address"
        },
        {
          "internalType": "bytes32",
          "name": "",
          "type": "bytes32"
        },
        {
          "internalType": "uint256",
          "name": "",
          "type": "uint256"
        },
        {
          "internalType": "address",
          "name": "",
          "type": "address"
        },
        {
          "internalType": "address",
          "name": "",
          "type": "address"
        },
        {
          "internalType": "address",
          "name": "",
          "type": "address"
        },
        {
          "internalType": "uint256",
          "name": "",
          "type": "uint256"
        }
      ],
      "stateMutability": "view",
      "type": "function"
    },
    {
      "inputs": [],
      "name": "getRawMaterialStatus",
      "outputs": [
        {
          "internalType": "uint256",
          "name": "",
          "type": "uint256"
        }
      ],
      "stateMutability": "view",
      "type": "function"
    },
    {
      "inputs": [
        {
          "internalType": "address",
          "name": "_transporterAddr",
          "type": "address"
        }
      ],
      "name": "pickPackage",
      "outputs": [],
      "stateMutability": "nonpayable",
      "type": "function"
    },
    {
      "inputs": [
        {
          "internalType": "address",
          "name": "_manufacturerAddr",
          "type": "address"
        }
      ],
      "name": "receivedPackage",
      "outputs": [],
      "stateMutability": "nonpayable",
      "type": "function"
    }
  ],
  "bytecode": "0x608060405234801561001057600080fd5b50604051610d3d380380610d3d83398101604081905261002f91610100565b600080546001600160a01b03199081166001600160a01b0389811691821784556001805484168a831617905560028890556003879055600480548416878316179055600580548416918616919091179055600680549092161760ff60a01b19169055604051829061009f906100f3565b6100a99190610173565b604051809103906000f0801580156100c5573d6000803e3d6000fd5b50600880546001600160a01b0319166001600160a01b03929092169190911790555061019f95505050505050565b6106a18061069c83390190565b60008060008060008060c08789031215610118578182fd5b865161012381610187565b602088015190965061013481610187565b809550506040870151935060608701519250608087015161015481610187565b60a088015190925061016581610187565b809150509295509295509295565b6001600160a01b0391909116815260200190565b6001600160a01b038116811461019c57600080fd5b50565b6104ee806101ae6000396000f3fe608060405234801561001057600080fd5b50600436106100575760003560e01c806336da44681461005c57806352b999681461007a578063638e9a3d1461008f5780636b099dca146100a257806380723520146100b7575b600080fd5b6100646100d2565b6040516100719190610338565b60405180910390f35b61008d61008836600461030a565b6100e1565b005b61008d61009d36600461030a565b6101bc565b6100aa610282565b60405161007191906104af565b6100bf6102a2565b604051610071979695949392919061034c565b6006546001600160a01b031681565b6005546001600160a01b038281169116146101175760405162461bcd60e51b815260040161010e906103cf565b60405180910390fd5b6001600654600160a01b900460ff16600281111561013157fe5b1461014e5760405162461bcd60e51b815260040161010e9061039c565b6006805460ff60a01b1916600160a11b179055600554600454600180546040516001600160a01b039485169493841693909116917f7e89c4b1a4e2b51aae84eb1f90e8a34cb792ece5ac5cb63db4830c891220b28d916101b1919060029061038e565b60405180910390a450565b6004546001600160a01b038281169116146101e95760405162461bcd60e51b815260040161010e9061045f565b6000600654600160a01b900460ff16600281111561020357fe5b146102205760405162461bcd60e51b815260040161010e90610428565b6006805460ff60a01b1916600160a01b179055600554600454600180546040516001600160a01b039485169493841693909116917f7e89c4b1a4e2b51aae84eb1f90e8a34cb792ece5ac5cb63db4830c891220b28d916101b19190819061038e565b600654600090600160a01b900460ff16600281111561029d57fe5b905090565b600154600280546003546006546004546005546000968796879687968796879687966001600160a01b0396871696949593948084169492811693911691600160a01b90910460ff16908111156102f457fe5b959d949c50929a50909850965094509092509050565b60006020828403121561031b578081fd5b81356001600160a01b0381168114610331578182fd5b9392505050565b6001600160a01b0391909116815260200190565b6001600160a01b0397881681526020810196909652604086019490945291851660608501528416608084015290921660a082015260c081019190915260e00190565b918252602082015260400190565b602080825260199082015278141c9bd91d58dd081b9bdd081c1a58dad959081d5c081e595d603a1b604082015260600190565b60208082526039908201527f4f6e6c79204d616e756661637475726572206f6620746865207061636b6167656040820152782063616e20726563656965766520746865207061636b61676560381b606082015260800190565b6020808252601c908201527f5061636b616765206d75737420626520617420537570706c6965722e00000000604082015260600190565b60208082526030908201527f4f6e6c79207472616e73706f72746572206f6620746865207061636b6167652060408201526f63616e207069636b207061636b61676560801b606082015260800190565b9081526020019056fea26469706673582212205161f816ca96e0fe78683b57da877047402870966ee2704a09ca9a60d9eef2c864736f6c634300060600336080604052600060025534801561001557600080fd5b506040516106a13803806106a183398101604081905261003491610059565b600080546001600160a01b0319166001600160a01b0392909216919091179055610087565b60006020828403121561006a578081fd5b81516001600160a01b0381168114610080578182fd5b9392505050565b61060b806100966000396000f3fe608060405234801561001057600080fd5b50600436106100415760003560e01c806327506f531461004657806378ce1365146100645780639ace38c214610079575b600080fd5b61004e61009f565b60405161005b91906104a3565b60405180910390f35b61006c6102a6565b60405161005b91906105cc565b61008c610087366004610440565b6102ac565b60405161005b979695949392919061056c565b600254606090818167ffffffffffffffff811180156100bd57600080fd5b506040519080825280602002602001820160405280156100f757816020015b6100e4610405565b8152602001906001900390816100dc5790505b50905060005b8281101561029f57600081815260016020818152604092839020835160e08101855281548152818401546001600160a01b0390811682850152600280840154909116828701526003830154606083015260048301805487516101009782161597909702600019011691909104601f81018590048502860185019096528585529094919360808601939092908301828280156101d95780601f106101ae576101008083540402835291602001916101d9565b820191906000526020600020905b8154815290600101906020018083116101bc57829003601f168201915b505050918352505060058201805460408051602060026001851615610100026000190190941693909304601f810184900484028201840190925281815293820193929183018282801561026d5780601f106102425761010080835404028352916020019161026d565b820191906000526020600020905b81548152906001019060200180831161025057829003601f168201915b5050505050815260200160068201548152505082828151811061028c57fe5b60209081029190910101526001016100fd565b5091505090565b60025481565b60016020818152600092835260409283902080548184015460028084015460038501546004860180548a516101009a8216159a909a02600019011693909304601f810188900488028901880190995288885293976001600160a01b039384169793909116959394938301828280156103655780601f1061033a57610100808354040283529160200191610365565b820191906000526020600020905b81548152906001019060200180831161034857829003601f168201915b5050505060058301805460408051602060026001851615610100026000190190941693909304601f81018490048402820184019092528181529495949350908301828280156103f55780601f106103ca576101008083540402835291602001916103f5565b820191906000526020600020905b8154815290600101906020018083116103d857829003601f168201915b5050505050908060060154905087565b6040805160e08101825260008082526020820181905291810182905260608082018390526080820181905260a082015260c081019190915290565b600060208284031215610451578081fd5b5035919050565b60008151808452815b8181101561047d57602081850181015186830182015201610461565b8181111561048e5782602083870101525b50601f01601f19169290920160200192915050565b60208082528251828201819052600091906040908185019080840286018301878501865b8381101561055e57888303603f19018552815180518452878101516001600160a01b03908116898601528782015116878501526060808201519085015260808082015160e0828701819052919061052083880182610458565b91505060a09150818301518682038388015261053c8282610458565b60c09485015197909401969096525050948701949250908601906001016104c7565b509098975050505050505050565b8781526001600160a01b038781166020830152861660408201526060810185905260e0608082018190526000906105a590830186610458565b82810360a08401526105b78186610458565b9150508260c083015298975050505050505050565b9081526020019056fea2646970667358221220ff8e17c21f1123467533f62f94e24496879b48feeea0603e6e19cd560bd8825764736f6c63430006060033",
  "immutableReferences": {},
  "source": "pragma solidity ^0.6.6;\r\npragma experimental ABIEncoderV2;\r\n\r\nimport './Transactions.sol';\r\n\r\ncontract RawMaterial {\r\n    \r\n    address Owner;\r\n\r\n    enum packageStatus { atCreator, picked, delivered }\r\n    \r\n    event ShippmentUpdate(\r\n        address indexed ProductID,\r\n        address indexed Transporter,\r\n        address indexed Manufacturer,\r\n        uint TransporterType,\r\n        uint Status\r\n    );\r\n\r\n    address productid;\r\n    bytes32 description;\r\n    uint quantity;\r\n    address transporter;\r\n    address manufacturer;\r\n    address public supplier;\r\n    packageStatus status;\r\n    bytes32 packageReceiverDescription;\r\n    address txnContractAddress;\r\n    \r\n    constructor (\r\n        address _creatorAddr,\r\n        address _productid,\r\n        bytes32 _description,\r\n        uint _quantity,\r\n        address _transporterAddr,\r\n        address _manufacturerAddr\r\n    ) public {\r\n        Owner = _creatorAddr;\r\n        productid = _productid;\r\n        description = _description;\r\n        quantity = _quantity;\r\n        transporter = _transporterAddr;\r\n        manufacturer = _manufacturerAddr;\r\n        supplier = _creatorAddr;\r\n        status = packageStatus(0);\r\n        Transactions txnContract = new Transactions(_manufacturerAddr);\r\n        txnContractAddress = address(txnContract);\r\n    }\r\n\r\n    /*\r\n    function getSuppliedRawMaterials () public view returns(\r\n        address,\r\n        bytes32,\r\n        uint,\r\n        address,\r\n        address,\r\n        address,\r\n        address\r\n    ) {\r\n        return (productid, description, quantity, supplier, transporter, manufacturer, txnContractAddress);\r\n    }\r\n    */\r\n\r\n    function getSuppliedRawMaterials() public view returns(\r\n    address,\r\n    bytes32,\r\n    uint,\r\n    address,\r\n    address,\r\n    address,\r\n    uint\r\n)\r\n{\r\n    return (\r\n        productid,\r\n        description,\r\n        quantity,\r\n        supplier,\r\n        transporter,\r\n        manufacturer,\r\n        uint(status)\r\n    );\r\n}\r\n\r\n\r\n\r\n    function getRawMaterialStatus() public view returns(\r\n        uint\r\n    ) {\r\n        return uint(status);\r\n    }\r\n\r\n\r\n\r\n    function pickPackage(\r\n        address _transporterAddr\r\n    ) public {\r\n        require(\r\n            _transporterAddr == transporter,\r\n            \"Only transporter of the package can pick package\"\r\n        );\r\n        require(\r\n            status == packageStatus(0),\r\n            \"Package must be at Supplier.\"\r\n        );\r\n        status = packageStatus(1);\r\n        emit ShippmentUpdate(productid, transporter, manufacturer, 1, 1);\r\n    }\r\n\r\n    \r\n    function receivedPackage(\r\n        address _manufacturerAddr\r\n    ) public {\r\n\r\n        require(\r\n            _manufacturerAddr == manufacturer,\r\n            \"Only Manufacturer of the package can receieve the package\"\r\n        );\r\n\r\n        require(\r\n            status == packageStatus(1),\r\n            \"Product not picked up yet\"\r\n        );\r\n        status = packageStatus(2);\r\n        emit ShippmentUpdate(productid, transporter, manufacturer, 1, 2);\r\n    }\r\n}",
  "sourcePath": "C:\\Users\\dell\\Downloads\\college_project\\Pharma-Chain\\blockchain\\contracts\\RawMaterial.sol",
  "compiler": {
    "name": "solc",
    "version": "0.6.6+commit.6c089d02.Emscripten.clang"
  },
  "schemaVersion": "3.4.16",
  "updatedAt": "2026-03-03T11:44:19.126Z",
  "devdoc": {
    "methods": {}
  },
  "userdoc": {
    "methods": {}
  }
}