{
  "contractName": "Supplier",
  "abi": [
    {
      "inputs": [],
      "stateMutability": "nonpayable",
      "type": "constructor"
    },
    {
      "inputs": [
        {
          "internalType": "uint256",
          "name": "",
          "type": "uint256"
        }
      ],
      "name": "allRawMaterials",
      "outputs": [
        {
          "internalType": "address",
          "name": "",
          "type": "address"
        }
      ],
      "stateMutability": "view",
      "type": "function"
    },
    {
      "inputs": [
        {
          "internalType": "address",
          "name": "",
          "type": "address"
        },
        {
          "internalType": "uint256",
          "name": "",
          "type": "uint256"
        }
      ],
      "name": "supplierRawMaterials",
      "outputs": [
        {
          "internalType": "address",
          "name": "",
          "type": "address"
        }
      ],
      "stateMutability": "view",
      "type": "function"
    },
    {
      "inputs": [
        {
          "internalType": "bytes32",
          "name": "_description",
          "type": "bytes32"
        },
        {
          "internalType": "uint256",
          "name": "_quantity",
          "type": "uint256"
        },
        {
          "internalType": "address",
          "name": "_transporterAddr",
          "type": "address"
        },
        {
          "internalType": "address",
          "name": "_manufacturerAddr",
          "type": "address"
        }
      ],
      "name": "createRawMaterialPackage",
      "outputs": [],
      "stateMutability": "nonpayable",
      "type": "function"
    },
    {
      "inputs": [],
      "name": "getNoOfPackagesOfSupplier",
      "outputs": [
        {
          "internalType": "uint256",
          "name": "",
          "type": "uint256"
        }
      ],
      "stateMutability": "view",
      "type": "function"
    },
    {
      "inputs": [],
      "name": "getAllPackages",
      "outputs": [
        {
          "internalType": "address[]",
          "name": "",
          "type": "address[]"
        }
      ],
      "stateMutability": "view",
      "type": "function"
    }
  ],
  "bytecode": "0x608060405234801561001057600080fd5b50611172806100206000396000f3fe608060405234801561001057600080fd5b50600436106100575760003560e01c806306db83241461005c5780630a421f0f146100a45780633f022f17146100fc578063c22470ea14610119578063fc7e01f314610133575b600080fd5b6100886004803603604081101561007257600080fd5b506001600160a01b03813516906020013561016f565b604080516001600160a01b039092168252519081900360200190f35b6100ac6101a4565b60408051602080825283518183015283519192839290830191858101910280838360005b838110156100e85781810151838201526020016100d0565b505050509050019250505060405180910390f35b6100886004803603602081101561011257600080fd5b5035610206565b61012161022d565b60408051918252519081900360200190f35b61016d6004803603608081101561014957600080fd5b508035906020810135906001600160a01b0360408201358116916060013516610240565b005b6000602052816000526040600020818154811061018857fe5b6000918252602090912001546001600160a01b03169150829050565b606060018054806020026020016040519081016040528092919081815260200182805480156101fc57602002820191906000526020600020905b81546001600160a01b031681526001909101906020018083116101de575b5050505050905090565b6001818154811061021357fe5b6000918252602090912001546001600160a01b0316905081565b3360009081526020819052604090205490565b6000336002334260405160200180836001600160a01b03166001600160a01b031660601b8152601401828152602001925050506040516020818303038152906040526040518082805190602001908083835b602083106102b15780518252601f199092019160209182019101610292565b51815160209384036101000a60001901801990921691161790526040519190930194509192505080830381855afa1580156102f0573d6000803e3d6000fd5b5050506040513d602081101561030557600080fd5b505160405160609190911c908790879087908790610322906103f2565b6001600160a01b039687168152948616602086015260408086019490945260608501929092528416608084015290921660a082015290519081900360c001906000f080158015610376573d6000803e3d6000fd5b5033600090815260208181526040822080546001818101835591845291832090910180546001600160a01b039094166001600160a01b0319948516811790915581548083018355919092527fb10e2d527612073b26eecdfd717e6a320cf44b4afac2b0732d9fcbe2b7fa0cf60180549092161790555050505050565b610d3d806104008339019056fe608060405234801561001057600080fd5b50604051610d3d380380610d3d83398101604081905261002f91610100565b600080546001600160a01b03199081166001600160a01b0389811691821784556001805484168a831617905560028890556003879055600480548416878316179055600580548416918616919091179055600680549092161760ff60a01b19169055604051829061009f906100f3565b6100a99190610173565b604051809103906000f0801580156100c5573d6000803e3d6000fd5b50600880546001600160a01b0319166001600160a01b03929092169190911790555061019f95505050505050565b6106a18061069c83390190565b60008060008060008060c08789031215610118578182fd5b865161012381610187565b602088015190965061013481610187565b809550506040870151935060608701519250608087015161015481610187565b60a088015190925061016581610187565b809150509295509295509295565b6001600160a01b0391909116815260200190565b6001600160a01b038116811461019c57600080fd5b50565b6104ee806101ae6000396000f3fe608060405234801561001057600080fd5b50600436106100575760003560e01c806336da44681461005c57806352b999681461007a578063638e9a3d1461008f5780636b099dca146100a257806380723520146100b7575b600080fd5b6100646100d2565b6040516100719190610338565b60405180910390f35b61008d61008836600461030a565b6100e1565b005b61008d61009d36600461030a565b6101bc565b6100aa610282565b60405161007191906104af565b6100bf6102a2565b604051610071979695949392919061034c565b6006546001600160a01b031681565b6005546001600160a01b038281169116146101175760405162461bcd60e51b815260040161010e906103cf565b60405180910390fd5b6001600654600160a01b900460ff16600281111561013157fe5b1461014e5760405162461bcd60e51b815260040161010e9061039c565b6006805460ff60a01b1916600160a11b179055600554600454600180546040516001600160a01b039485169493841693909116917f7e89c4b1a4e2b51aae84eb1f90e8a34cb792ece5ac5cb63db4830c891220b28d916101b1919060029061038e565b60405180910390a450565b6004546001600160a01b038281169116146101e95760405162461bcd60e51b815260040161010e9061045f565b6000600654600160a01b900460ff16600281111561020357fe5b146102205760405162461bcd60e51b815260040161010e90610428565b6006805460ff60a01b1916600160a01b179055600554600454600180546040516001600160a01b039485169493841693909116917f7e89c4b1a4e2b51aae84eb1f90e8a34cb792ece5ac5cb63db4830c891220b28d916101b19190819061038e565b600654600090600160a01b900460ff16600281111561029d57fe5b905090565b600154600280546003546006546004546005546000968796879687968796879687966001600160a01b0396871696949593948084169492811693911691600160a01b90910460ff16908111156102f457fe5b959d949c50929a50909850965094509092509050565b60006020828403121561031b578081fd5b81356001600160a01b0381168114610331578182fd5b9392505050565b6001600160a01b0391909116815260200190565b6001600160a01b0397881681526020810196909652604086019490945291851660608501528416608084015290921660a082015260c081019190915260e00190565b918252602082015260400190565b602080825260199082015278141c9bd91d58dd081b9bdd081c1a58dad959081d5c081e595d603a1b604082015260600190565b60208082526039908201527f4f6e6c79204d616e756661637475726572206f6620746865207061636b6167656040820152782063616e20726563656965766520746865207061636b61676560381b606082015260800190565b6020808252601c908201527f5061636b616765206d75737420626520617420537570706c6965722e00000000604082015260600190565b60208082526030908201527f4f6e6c79207472616e73706f72746572206f6620746865207061636b6167652060408201526f63616e207069636b207061636b61676560801b606082015260800190565b9081526020019056fea26469706673582212205161f816ca96e0fe78683b57da877047402870966ee2704a09ca9a60d9eef2c864736f6c634300060600336080604052600060025534801561001557600080fd5b506040516106a13803806106a183398101604081905261003491610059565b600080546001600160a01b0319166001600160a01b0392909216919091179055610087565b60006020828403121561006a578081fd5b81516001600160a01b0381168114610080578182fd5b9392505050565b61060b806100966000396000f3fe608060405234801561001057600080fd5b50600436106100415760003560e01c806327506f531461004657806378ce1365146100645780639ace38c214610079575b600080fd5b61004e61009f565b60405161005b91906104a3565b60405180910390f35b61006c6102a6565b60405161005b91906105cc565b61008c610087366004610440565b6102ac565b60405161005b979695949392919061056c565b600254606090818167ffffffffffffffff811180156100bd57600080fd5b506040519080825280602002602001820160405280156100f757816020015b6100e4610405565b8152602001906001900390816100dc5790505b50905060005b8281101561029f57600081815260016020818152604092839020835160e08101855281548152818401546001600160a01b0390811682850152600280840154909116828701526003830154606083015260048301805487516101009782161597909702600019011691909104601f81018590048502860185019096528585529094919360808601939092908301828280156101d95780601f106101ae576101008083540402835291602001916101d9565b820191906000526020600020905b8154815290600101906020018083116101bc57829003601f168201915b505050918352505060058201805460408051602060026001851615610100026000190190941693909304601f810184900484028201840190925281815293820193929183018282801561026d5780601f106102425761010080835404028352916020019161026d565b820191906000526020600020905b81548152906001019060200180831161025057829003601f168201915b5050505050815260200160068201548152505082828151811061028c57fe5b60209081029190910101526001016100fd565b5091505090565b60025481565b60016020818152600092835260409283902080548184015460028084015460038501546004860180548a516101009a8216159a909a02600019011693909304601f810188900488028901880190995288885293976001600160a01b039384169793909116959394938301828280156103655780601f1061033a57610100808354040283529160200191610365565b820191906000526020600020905b81548152906001019060200180831161034857829003601f168201915b5050505060058301805460408051602060026001851615610100026000190190941693909304601f81018490048402820184019092528181529495949350908301828280156103f55780601f106103ca576101008083540402835291602001916103f5565b820191906000526020600020905b8154815290600101906020018083116103d857829003601f168201915b5050505050908060060154905087565b6040805160e08101825260008082526020820181905291810182905260608082018390526080820181905260a082015260c081019190915290565b600060208284031215610451578081fd5b5035919050565b60008151808452815b8181101561047d57602081850181015186830182015201610461565b8181111561048e5782602083870101525b50601f01601f19169290920160200192915050565b60208082528251828201819052600091906040908185019080840286018301878501865b8381101561055e57888303603f19018552815180518452878101516001600160a01b03908116898601528782015116878501526060808201519085015260808082015160e0828701819052919061052083880182610458565b91505060a09150818301518682038388015261053c8282610458565b60c09485015197909401969096525050948701949250908601906001016104c7565b509098975050505050505050565b8781526001600160a01b038781166020830152861660408201526060810185905260e0608082018190526000906105a590830186610458565b82810360a08401526105b78186610458565b9150508260c083015298975050505050505050565b9081526020019056fea2646970667358221220ff8e17c21f1123467533f62f94e24496879b48feeea0603e6e19cd560bd8825764736f6c63430006060033a26469706673582212201a3bc92f653c33c9228c7e7b9d83d2a68184b0a12bfbd3932786cf4c59abc1ca64736f6c63430006060033",
  "immutableReferences": {},
  "source": "pragma solidity ^0.6.6;\r\n\r\nimport './RawMaterial.sol';\r\n\r\ncontract Supplier {\r\n    \r\n    mapping (address => address[]) public supplierRawMaterials;\r\n    address[] public allRawMaterials;\r\n    \r\n    constructor() public {}\r\n    \r\n    function createRawMaterialPackage(\r\n        bytes32 _description,\r\n        uint _quantity,\r\n        address _transporterAddr,\r\n        address _manufacturerAddr\r\n    ) public {\r\n\r\n        RawMaterial rawMaterial = new RawMaterial(\r\n            msg.sender,\r\n            address(bytes20(sha256(abi.encodePacked(msg.sender, now)))),\r\n            _description,\r\n            _quantity,\r\n            _transporterAddr,\r\n            _manufacturerAddr\r\n        );\r\n        \r\n        supplierRawMaterials[msg.sender].push(address(rawMaterial));\r\n        allRawMaterials.push(address(rawMaterial));\r\n    }\r\n    \r\n    function getNoOfPackagesOfSupplier() public view returns(uint) {\r\n        return supplierRawMaterials[msg.sender].length;\r\n    }\r\n    \r\n    //  Global getter for Manufacturer\r\n    function getAllPackages() public view returns(address[] memory) {\r\n        return allRawMaterials;\r\n    }\r\n}",
  "sourcePath": "C:\\Users\\dell\\Downloads\\college_project\\Pharma-Chain\\blockchain\\contracts\\Supplier.sol",
  "compiler": {
    "name": "solc",
    "version": "0.6.6+commit.6c089d02.Emscripten.clang"
  },
  "schemaVersion": "3.4.16",
  "updatedAt": "2026-03-03T11:44:19.129Z",
  "devdoc": {
    "methods": {}
  },
  "userdoc": {
    "methods": {}
  }
}