{
  "contractName": "SupplyChain",
  "abi": [
    {
      "inputs": [],
      "stateMutability": "nonpayable",
      "type": "constructor"
    },
    {
      "anonymous": false,
      "inputs": [
        {
          "indexed": false,
          "internalType": "address",
          "name": "_address",
          "type": "address"
        },
        {
          "indexed": true,
          "internalType": "address",
          "name": "Customer",
          "type": "address"
        },
        {
          "indexed": false,
          "internalType": "uint256",
          "name": "status",
          "type": "uint256"
        }
      ],
      "name": "MedicineStatus",
      "type": "event"
    },
    {
      "anonymous": false,
      "inputs": [
        {
          "indexed": true,
          "internalType": "address",
          "name": "_address",
          "type": "address"
        },
        {
          "indexed": false,
          "internalType": "bytes32",
          "name": "name",
          "type": "bytes32"
        }
      ],
      "name": "UserRegister",
      "type": "event"
    },
    {
      "anonymous": false,
      "inputs": [
        {
          "indexed": false,
          "internalType": "address",
          "name": "buyer",
          "type": "address"
        },
        {
          "indexed": false,
          "internalType": "address",
          "name": "seller",
          "type": "address"
        },
        {
          "indexed": false,
          "internalType": "address",
          "name": "packageAddr",
          "type": "address"
        },
        {
          "indexed": false,
          "internalType": "bytes",
          "name": "signature",
          "type": "bytes"
        },
        {
          "indexed": true,
          "internalType": "uint256",
          "name": "now",
          "type": "uint256"
        }
      ],
      "name": "buyEvent",
      "type": "event"
    },
    {
      "anonymous": false,
      "inputs": [
        {
          "indexed": false,
          "internalType": "address",
          "name": "buyer",
          "type": "address"
        },
        {
          "indexed": false,
          "internalType": "address",
          "name": "seller",
          "type": "address"
        },
        {
          "indexed": false,
          "internalType": "address",
          "name": "packageAddr",
          "type": "address"
        },
        {
          "indexed": false,
          "internalType": "bytes",
          "name": "signature",
          "type": "bytes"
        },
        {
          "indexed": true,
          "internalType": "uint256",
          "name": "now",
          "type": "uint256"
        }
      ],
      "name": "receivedEvent",
      "type": "event"
    },
    {
      "anonymous": false,
      "inputs": [
        {
          "indexed": false,
          "internalType": "address",
          "name": "buyer",
          "type": "address"
        },
        {
          "indexed": false,
          "internalType": "address",
          "name": "seller",
          "type": "address"
        },
        {
          "indexed": false,
          "internalType": "address",
          "name": "packageAddr",
          "type": "address"
        },
        {
          "indexed": false,
          "internalType": "bytes",
          "name": "signature",
          "type": "bytes"
        },
        {
          "indexed": true,
          "internalType": "uint256",
          "name": "now",
          "type": "uint256"
        }
      ],
      "name": "respondEvent",
      "type": "event"
    },
    {
      "anonymous": false,
      "inputs": [
        {
          "indexed": false,
          "internalType": "address",
          "name": "seller",
          "type": "address"
        },
        {
          "indexed": false,
          "internalType": "address",
          "name": "buyer",
          "type": "address"
        },
        {
          "indexed": false,
          "internalType": "address",
          "name": "packageAddr",
          "type": "address"
        },
        {
          "indexed": false,
          "internalType": "bytes",
          "name": "signature",
          "type": "bytes"
        },
        {
          "indexed": true,
          "internalType": "uint256",
          "name": "now",
          "type": "uint256"
        }
      ],
      "name": "sendEvent",
      "type": "event"
    },
    {
      "inputs": [
        {
          "internalType": "address",
          "name": "",
          "type": "address"
        },
        {
          "internalType": "uint256",
          "name": "",
          "type": "uint256"
        }
      ],
      "name": "MedicineBatchAtCustomer",
      "outputs": [
        {
          "internalType": "address",
          "name": "",
          "type": "address"
        }
      ],
      "stateMutability": "view",
      "type": "function",
      "constant": true
    },
    {
      "inputs": [
        {
          "internalType": "address",
          "name": "",
          "type": "address"
        },
        {
          "internalType": "uint256",
          "name": "",
          "type": "uint256"
        }
      ],
      "name": "MedicineDtoC",
      "outputs": [
        {
          "internalType": "address",
          "name": "",
          "type": "address"
        }
      ],
      "stateMutability": "view",
      "type": "function",
      "constant": true
    },
    {
      "inputs": [
        {
          "internalType": "address",
          "name": "",
          "type": "address"
        }
      ],
      "name": "MedicineDtoCTxContract",
      "outputs": [
        {
          "internalType": "address",
          "name": "",
          "type": "address"
        }
      ],
      "stateMutability": "view",
      "type": "function",
      "constant": true
    },
    {
      "inputs": [
        {
          "internalType": "address",
          "name": "",
          "type": "address"
        },
        {
          "internalType": "uint256",
          "name": "",
          "type": "uint256"
        }
      ],
      "name": "MedicineWtoD",
      "outputs": [
        {
          "internalType": "address",
          "name": "",
          "type": "address"
        }
      ],
      "stateMutability": "view",
      "type": "function",
      "constant": true
    },
    {
      "inputs": [
        {
          "internalType": "address",
          "name": "",
          "type": "address"
        }
      ],
      "name": "MedicineWtoDTxContract",
      "outputs": [
        {
          "internalType": "address",
          "name": "",
          "type": "address"
        }
      ],
      "stateMutability": "view",
      "type": "function",
      "constant": true
    },
    {
      "inputs": [
        {
          "internalType": "address",
          "name": "",
          "type": "address"
        },
        {
          "internalType": "uint256",
          "name": "",
          "type": "uint256"
        }
      ],
      "name": "MedicinesAtDistributor",
      "outputs": [
        {
          "internalType": "address",
          "name": "",
          "type": "address"
        }
      ],
      "stateMutability": "view",
      "type": "function",
      "constant": true
    },
    {
      "inputs": [
        {
          "internalType": "address",
          "name": "",
          "type": "address"
        },
        {
          "internalType": "uint256",
          "name": "",
          "type": "uint256"
        }
      ],
      "name": "MedicinesAtWholesaler",
      "outputs": [
        {
          "internalType": "address",
          "name": "",
          "type": "address"
        }
      ],
      "stateMutability": "view",
      "type": "function",
      "constant": true
    },
    {
      "inputs": [],
      "name": "Owner",
      "outputs": [
        {
          "internalType": "address",
          "name": "",
          "type": "address"
        }
      ],
      "stateMutability": "view",
      "type": "function",
      "constant": true
    },
    {
      "inputs": [
        {
          "internalType": "uint256",
          "name": "",
          "type": "uint256"
        }
      ],
      "name": "allRawMaterials",
      "outputs": [
        {
          "internalType": "address",
          "name": "",
          "type": "address"
        }
      ],
      "stateMutability": "view",
      "type": "function",
      "constant": true
    },
    {
      "inputs": [
        {
          "internalType": "bytes32",
          "name": "_description",
          "type": "bytes32"
        },
        {
          "internalType": "uint256",
          "name": "_quantity",
          "type": "uint256"
        },
        {
          "internalType": "address",
          "name": "_transporterAddr",
          "type": "address"
        },
        {
          "internalType": "address",
          "name": "_manufacturerAddr",
          "type": "address"
        }
      ],
      "name": "createRawMaterialPackage",
      "outputs": [],
      "stateMutability": "nonpayable",
      "type": "function"
    },
    {
      "inputs": [],
      "name": "getAllPackages",
      "outputs": [
        {
          "internalType": "address[]",
          "name": "",
          "type": "address[]"
        }
      ],
      "stateMutability": "view",
      "type": "function",
      "constant": true
    },
    {
      "inputs": [],
      "name": "getNoOfPackagesOfSupplier",
      "outputs": [
        {
          "internalType": "uint256",
          "name": "",
          "type": "uint256"
        }
      ],
      "stateMutability": "view",
      "type": "function",
      "constant": true
    },
    {
      "inputs": [
        {
          "internalType": "address",
          "name": "_addr",
          "type": "address"
        },
        {
          "internalType": "uint256",
          "name": "transportertype",
          "type": "uint256"
        },
        {
          "internalType": "address",
          "name": "cid",
          "type": "address"
        }
      ],
      "name": "handlePackage",
      "outputs": [],
      "stateMutability": "nonpayable",
      "type": "function"
    },
    {
      "inputs": [
        {
          "internalType": "address",
          "name": "_manufacturerAddr",
          "type": "address"
        },
        {
          "internalType": "bytes32",
          "name": "_description",
          "type": "bytes32"
        },
        {
          "internalType": "address[]",
          "name": "_rawAddr",
          "type": "address[]"
        },
        {
          "internalType": "uint256",
          "name": "_quantity",
          "type": "uint256"
        },
        {
          "internalType": "address[]",
          "name": "_transporterAddr",
          "type": "address[]"
        },
        {
          "internalType": "address",
          "name": "_recieverAddr",
          "type": "address"
        },
        {
          "internalType": "uint256",
          "name": "RcvrType",
          "type": "uint256"
        }
      ],
      "name": "manufacturerCreatesMedicine",
      "outputs": [],
      "stateMutability": "nonpayable",
      "type": "function"
    },
    {
      "inputs": [
        {
          "internalType": "address",
          "name": "",
          "type": "address"
        },
        {
          "internalType": "uint256",
          "name": "",
          "type": "uint256"
        }
      ],
      "name": "manufacturerMedicines",
      "outputs": [
        {
          "internalType": "address",
          "name": "",
          "type": "address"
        }
      ],
      "stateMutability": "view",
      "type": "function",
      "constant": true
    },
    {
      "inputs": [
        {
          "internalType": "address",
          "name": "",
          "type": "address"
        },
        {
          "internalType": "uint256",
          "name": "",
          "type": "uint256"
        }
      ],
      "name": "manufacturerRawMaterials",
      "outputs": [
        {
          "internalType": "address",
          "name": "",
          "type": "address"
        }
      ],
      "stateMutability": "view",
      "type": "function",
      "constant": true
    },
    {
      "inputs": [
        {
          "internalType": "address",
          "name": "_addr",
          "type": "address"
        },
        {
          "internalType": "address",
          "name": "_manufacturerAddress",
          "type": "address"
        }
      ],
      "name": "manufacturerReceivedPackage",
      "outputs": [],
      "stateMutability": "nonpayable",
      "type": "function"
    },
    {
      "inputs": [
        {
          "internalType": "address",
          "name": "_address",
          "type": "address"
        },
        {
          "internalType": "address",
          "name": "cid",
          "type": "address"
        }
      ],
      "name": "medicineRecievedAtCustomer",
      "outputs": [],
      "stateMutability": "nonpayable",
      "type": "function"
    },
    {
      "inputs": [
        {
          "internalType": "address",
          "name": "_address",
          "type": "address"
        },
        {
          "internalType": "address",
          "name": "cid",
          "type": "address"
        }
      ],
      "name": "medicineRecievedAtDistributor",
      "outputs": [],
      "stateMutability": "nonpayable",
      "type": "function"
    },
    {
      "inputs": [
        {
          "internalType": "address",
          "name": "_address",
          "type": "address"
        }
      ],
      "name": "medicineRecievedAtWholesaler",
      "outputs": [],
      "stateMutability": "nonpayable",
      "type": "function"
    },
    {
      "inputs": [
        {
          "internalType": "address",
          "name": "",
          "type": "address"
        }
      ],
      "name": "requestedByManufacturer",
      "outputs": [
        {
          "internalType": "bool",
          "name": "",
          "type": "bool"
        }
      ],
      "stateMutability": "view",
      "type": "function",
      "constant": true
    },
    {
      "inputs": [
        {
          "internalType": "address",
          "name": "",
          "type": "address"
        }
      ],
      "name": "sale",
      "outputs": [
        {
          "internalType": "enum Customer.salestatus",
          "name": "",
          "type": "uint8"
        }
      ],
      "stateMutability": "view",
      "type": "function",
      "constant": true
    },
    {
      "inputs": [
        {
          "internalType": "address",
          "name": "_address",
          "type": "address"
        }
      ],
      "name": "salesInfo",
      "outputs": [
        {
          "internalType": "uint256",
          "name": "Status",
          "type": "uint256"
        }
      ],
      "stateMutability": "view",
      "type": "function",
      "constant": true
    },
    {
      "inputs": [
        {
          "internalType": "address",
          "name": "",
          "type": "address"
        },
        {
          "internalType": "uint256",
          "name": "",
          "type": "uint256"
        }
      ],
      "name": "supplierRawMaterials",
      "outputs": [
        {
          "internalType": "address",
          "name": "",
          "type": "address"
        }
      ],
      "stateMutability": "view",
      "type": "function",
      "constant": true
    },
    {
      "inputs": [
        {
          "internalType": "address",
          "name": "_address",
          "type": "address"
        },
        {
          "internalType": "address",
          "name": "transporter",
          "type": "address"
        },
        {
          "internalType": "address",
          "name": "receiver",
          "type": "address"
        }
      ],
      "name": "transferMedicineDtoC",
      "outputs": [],
      "stateMutability": "nonpayable",
      "type": "function"
    },
    {
      "inputs": [
        {
          "internalType": "address",
          "name": "_address",
          "type": "address"
        },
        {
          "internalType": "address",
          "name": "transporter",
          "type": "address"
        },
        {
          "internalType": "address",
          "name": "receiver",
          "type": "address"
        }
      ],
      "name": "transferMedicineWtoD",
      "outputs": [],
      "stateMutability": "nonpayable",
      "type": "function"
    },
    {
      "inputs": [
        {
          "internalType": "address",
          "name": "_address",
          "type": "address"
        },
        {
          "internalType": "uint256",
          "name": "Status",
          "type": "uint256"
        }
      ],
      "name": "updateSaleStatus",
      "outputs": [],
      "stateMutability": "nonpayable",
      "type": "function"
    },
    {
      "inputs": [
        {
          "internalType": "address",
          "name": "",
          "type": "address"
        }
      ],
      "name": "userInfo",
      "outputs": [
        {
          "internalType": "bytes32",
          "name": "name",
          "type": "bytes32"
        },
        {
          "internalType": "string",
          "name": "userLoc",
          "type": "string"
        },
        {
          "internalType": "enum SupplyChain.roles",
          "name": "role",
          "type": "uint8"
        },
        {
          "internalType": "address",
          "name": "userAddr",
          "type": "address"
        }
      ],
      "stateMutability": "view",
      "type": "function",
      "constant": true
    },
    {
      "inputs": [
        {
          "internalType": "uint256",
          "name": "",
          "type": "uint256"
        }
      ],
      "name": "userList",
      "outputs": [
        {
          "internalType": "address",
          "name": "",
          "type": "address"
        }
      ],
      "stateMutability": "view",
      "type": "function",
      "constant": true
    },
    {
      "inputs": [
        {
          "internalType": "bytes32",
          "name": "name",
          "type": "bytes32"
        },
        {
          "internalType": "string",
          "name": "loc",
          "type": "string"
        },
        {
          "internalType": "uint256",
          "name": "role",
          "type": "uint256"
        },
        {
          "internalType": "address",
          "name": "_userAddr",
          "type": "address"
        }
      ],
      "name": "registerUser",
      "outputs": [],
      "stateMutability": "nonpayable",
      "type": "function"
    },
    {
      "inputs": [],
      "name": "getAllUsers",
      "outputs": [
        {
          "internalType": "address[]",
          "name": "",
          "type": "address[]"
        }
      ],
      "stateMutability": "view",
      "type": "function",
      "constant": true
    },
    {
      "inputs": [],
      "name": "getOwner",
      "outputs": [
        {
          "internalType": "address",
          "name": "",
          "type": "address"
        }
      ],
      "stateMutability": "view",
      "type": "function",
      "constant": true
    },
    {
      "inputs": [
        {
          "internalType": "uint256",
          "name": "_role",
          "type": "uint256"
        },
        {
          "internalType": "address",
          "name": "_addr",
          "type": "address"
        }
      ],
      "name": "changeUserRole",
      "outputs": [
        {
          "internalType": "string",
          "name": "",
          "type": "string"
        }
      ],
      "stateMutability": "nonpayable",
      "type": "function"
    },
    {
      "inputs": [
        {
          "internalType": "address",
          "name": "_address",
          "type": "address"
        }
      ],
      "name": "getUserInfo",
      "outputs": [
        {
          "components": [
            {
              "internalType": "bytes32",
              "name": "name",
              "type": "bytes32"
            },
            {
              "internalType": "string",
              "name": "userLoc",
              "type": "string"
            },
            {
              "internalType": "enum SupplyChain.roles",
              "name": "role",
              "type": "uint8"
            },
            {
              "internalType": "address",
              "name": "userAddr",
              "type": "address"
            }
          ],
          "internalType": "struct SupplyChain.userData",
          "name": "",
          "type": "tuple"
        }
      ],
      "stateMutability": "view",
      "type": "function",
      "constant": true
    },
    {
      "inputs": [
        {
          "internalType": "bytes32",
          "name": "_description",
          "type": "bytes32"
        },
        {
          "internalType": "uint256",
          "name": "_quantity",
          "type": "uint256"
        },
        {
          "internalType": "address",
          "name": "_transporterAddr",
          "type": "address"
        },
        {
          "internalType": "address",
          "name": "_manufacturerAddr",
          "type": "address"
        }
      ],
      "name": "supplierCreatesRawPackage",
      "outputs": [],
      "stateMutability": "nonpayable",
      "type": "function"
    },
    {
      "inputs": [],
      "name": "supplierGetPackageCount",
      "outputs": [
        {
          "internalType": "uint256",
          "name": "",
          "type": "uint256"
        }
      ],
      "stateMutability": "view",
      "type": "function",
      "constant": true
    },
    {
      "inputs": [],
      "name": "supplierGetRawMaterialAddresses",
      "outputs": [
        {
          "internalType": "address[]",
          "name": "",
          "type": "address[]"
        }
      ],
      "stateMutability": "view",
      "type": "function",
      "constant": true
    },
    {
      "inputs": [
        {
          "internalType": "address",
          "name": "_address",
          "type": "address"
        },
        {
          "internalType": "uint256",
          "name": "transporterType",
          "type": "uint256"
        },
        {
          "internalType": "address",
          "name": "cid",
          "type": "address"
        }
      ],
      "name": "transporterHandlePackage",
      "outputs": [],
      "stateMutability": "nonpayable",
      "type": "function"
    },
    {
      "inputs": [
        {
          "internalType": "address",
          "name": "_addr",
          "type": "address"
        }
      ],
      "name": "manufacturerReceivedRawMaterials",
      "outputs": [],
      "stateMutability": "nonpayable",
      "type": "function"
    },
    {
      "inputs": [
        {
          "internalType": "bytes32",
          "name": "_description",
          "type": "bytes32"
        },
        {
          "internalType": "address[]",
          "name": "_rawAddr",
          "type": "address[]"
        },
        {
          "internalType": "uint256",
          "name": "_quantity",
          "type": "uint256"
        },
        {
          "internalType": "address[]",
          "name": "_transporterAddr",
          "type": "address[]"
        },
        {
          "internalType": "address",
          "name": "_receiverAddr",
          "type": "address"
        },
        {
          "internalType": "uint256",
          "name": "RcvrType",
          "type": "uint256"
        }
      ],
      "name": "manufacturerCreatesNewMedicine",
      "outputs": [
        {
          "internalType": "string",
          "name": "",
          "type": "string"
        }
      ],
      "stateMutability": "nonpayable",
      "type": "function"
    },
    {
      "inputs": [
        {
          "internalType": "address",
          "name": "packageAddr",
          "type": "address"
        },
        {
          "internalType": "bytes",
          "name": "signature",
          "type": "bytes"
        }
      ],
      "name": "buyRawMaterial",
      "outputs": [],
      "stateMutability": "nonpayable",
      "type": "function"
    },
    {
      "inputs": [
        {
          "internalType": "address",
          "name": "_address",
          "type": "address"
        }
      ],
      "name": "wholesalerReceivedMedicine",
      "outputs": [],
      "stateMutability": "nonpayable",
      "type": "function"
    },
    {
      "inputs": [
        {
          "internalType": "address",
          "name": "_address",
          "type": "address"
        },
        {
          "internalType": "address",
          "name": "transporter",
          "type": "address"
        },
        {
          "internalType": "address",
          "name": "receiver",
          "type": "address"
        }
      ],
      "name": "transferMedicineW_D",
      "outputs": [],
      "stateMutability": "nonpayable",
      "type": "function"
    },
    {
      "inputs": [
        {
          "internalType": "uint256",
          "name": "index",
          "type": "uint256"
        }
      ],
      "name": "getBatchIdByIndexWD",
      "outputs": [
        {
          "internalType": "address",
          "name": "packageID",
          "type": "address"
        }
      ],
      "stateMutability": "view",
      "type": "function",
      "constant": true
    },
    {
      "inputs": [
        {
          "internalType": "address",
          "name": "_address",
          "type": "address"
        }
      ],
      "name": "getSubContractWD",
      "outputs": [
        {
          "internalType": "address",
          "name": "SubContractWD",
          "type": "address"
        }
      ],
      "stateMutability": "view",
      "type": "function",
      "constant": true
    },
    {
      "inputs": [
        {
          "internalType": "address",
          "name": "_address",
          "type": "address"
        },
        {
          "internalType": "address",
          "name": "cid",
          "type": "address"
        }
      ],
      "name": "distributorReceivedMedicine",
      "outputs": [],
      "stateMutability": "nonpayable",
      "type": "function"
    },
    {
      "inputs": [
        {
          "internalType": "address",
          "name": "_address",
          "type": "address"
        },
        {
          "internalType": "address",
          "name": "transporter",
          "type": "address"
        },
        {
          "internalType": "address",
          "name": "receiver",
          "type": "address"
        }
      ],
      "name": "distributorTransferMedicinetoCustomer",
      "outputs": [],
      "stateMutability": "nonpayable",
      "type": "function"
    },
    {
      "inputs": [],
      "name": "getBatchesCountDC",
      "outputs": [
        {
          "internalType": "uint256",
          "name": "count",
          "type": "uint256"
        }
      ],
      "stateMutability": "view",
      "type": "function",
      "constant": true
    },
    {
      "inputs": [
        {
          "internalType": "uint256",
          "name": "index",
          "type": "uint256"
        }
      ],
      "name": "getBatchIdByIndexDC",
      "outputs": [
        {
          "internalType": "address",
          "name": "packageID",
          "type": "address"
        }
      ],
      "stateMutability": "view",
      "type": "function",
      "constant": true
    },
    {
      "inputs": [
        {
          "internalType": "address",
          "name": "_address",
          "type": "address"
        }
      ],
      "name": "getSubContractDC",
      "outputs": [
        {
          "internalType": "address",
          "name": "SubContractDP",
          "type": "address"
        }
      ],
      "stateMutability": "view",
      "type": "function",
      "constant": true
    },
    {
      "inputs": [
        {
          "internalType": "address",
          "name": "_address",
          "type": "address"
        },
        {
          "internalType": "address",
          "name": "cid",
          "type": "address"
        }
      ],
      "name": "customerReceivedMedicine",
      "outputs": [],
      "stateMutability": "nonpayable",
      "type": "function"
    },
    {
      "inputs": [
        {
          "internalType": "address",
          "name": "_address",
          "type": "address"
        },
        {
          "internalType": "uint256",
          "name": "Status",
          "type": "uint256"
        }
      ],
      "name": "updateStatus",
      "outputs": [],
      "stateMutability": "nonpayable",
      "type": "function"
    },
    {
      "inputs": [
        {
          "internalType": "address",
          "name": "_address",
          "type": "address"
        }
      ],
      "name": "getSalesInfo",
      "outputs": [
        {
          "internalType": "uint256",
          "name": "Status",
          "type": "uint256"
        }
      ],
      "stateMutability": "view",
      "type": "function",
      "constant": true
    },
    {
      "inputs": [],
      "name": "getBatchesCountC",
      "outputs": [
        {
          "internalType": "uint256",
          "name": "count",
          "type": "uint256"
        }
      ],
      "stateMutability": "view",
      "type": "function",
      "constant": true
    },
    {
      "inputs": [
        {
          "internalType": "uint256",
          "name": "index",
          "type": "uint256"
        }
      ],
      "name": "getBatchIdByIndexC",
      "outputs": [
        {
          "internalType": "address",
          "name": "_address",
          "type": "address"
        }
      ],
      "stateMutability": "view",
      "type": "function",
      "constant": true
    }
  ],
  "bytecode": "0x608060405234801561001057600080fd5b50600c80546001600160a01b03191633179055615afb806100326000396000f3fe60806040523480156200001157600080fd5b5060043610620003345760003560e01c80638dfa742d11620001b9578063c22470ea11620000f9578063dd1facb2116200009f578063dd1facb214620007a7578063e2842d7914620007be578063eae3c20714620007c8578063f06822d814620007df578063fc7e01f314620007f6578063fd302c35146200080d578063ff2b065a14620008245762000334565b8063c22470ea146200072d578063c2b709881462000737578063c40b38af146200074e578063cd55152e1462000765578063d1acb527146200076f578063da48f20c1462000779578063dc4c25b314620007905762000334565b8063a4d886b2116200015f578063a4d886b2146200068a578063a999cca114620006a1578063ac216dc914620006b8578063b0fc028d14620006de578063b4a99a4e14620006f5578063bb8ee1c514620006ff578063be7ef9c014620007165762000334565b80638dfa742d14620005e95780638e7d1b5114620006005780639100978614620006175780639509c2ff146200062e5780639af035a314620006455780639c1ba94a146200065c5780639f4216e814620006735762000334565b806356e5efc4116200028557806375df2684116200022b57806375df26841462000544578063798a826f146200056a578063805bac971462000581578063824e43e714620005a7578063893d20e814620005b15780638aca032b14620005bb5780638ccc8db714620005d25762000334565b806356e5efc4146200049257806357bd4c7a14620004a957806362c1fe3914620004c25780636386c1c714620004d95780636c6f9e0014620004ff5780636e6c6c1814620005165780636f41507c146200052d5762000334565b80631959a00211620002eb5780631959a00214620003df57806331e0afc2146200040857806334759016146200041f5780633f022f171462000436578063412afbaf146200044d5780634aab0726146200046457806356466dee146200047b5762000334565b8063050e70db146200033957806306db832414620003685780630a421f0f146200037f578063102795bc146200039857806311789ca614620003b1578063164bcd5b14620003c8575b600080fd5b620003506200034a36600462002639565b6200083b565b6040516200035f919062002988565b60405180910390f35b620003506200037936600462002639565b62000871565b620003896200088b565b6040516200035f919062002ae2565b620003af620003a93660046200245f565b620008f0565b005b620003af620003c236600462002847565b6200094c565b62000350620003d936600462002895565b620009a4565b620003f6620003f03660046200245f565b62000a21565b6040516200035f949392919062002b0b565b620003af6200041936600462002639565b62000ae6565b62000350620004303660046200245f565b62000c11565b620003506200044736600462002895565b62000c2f565b620003506200045e36600462002639565b62000c57565b620003506200047536600462002639565b62000c71565b620003af6200048c366004620024a4565b62000c8b565b620003af620004a336600462002532565b62000d2e565b620004b362000dbb565b6040516200035f919062002b02565b62000350620004d33660046200245f565b62000e15565b620004f0620004ea3660046200245f565b62000e33565b6040516200035f919062002fdf565b620003af62000510366004620025e1565b62000f65565b620003af620005273660046200245f565b62001090565b620003af6200053e36600462002667565b62001161565b6200055b620005553660046200245f565b620012b9565b6040516200035f919062002b53565b620003506200057b3660046200245f565b620012ce565b620005986200059236600462002734565b620012e9565b6040516200035f919062002b68565b62000389620013fc565b620003506200140f565b620003af620005cc366004620024a4565b6200141e565b62000350620005e336600462002639565b6200146e565b62000350620005fa36600462002639565b62001488565b620003af62000611366004620027d9565b620014a2565b6200059862000628366004620028ae565b62001637565b620003af6200063f366004620024e1565b620016bf565b620003506200065636600462002895565b6200179a565b620003506200066d36600462002895565b620017fc565b620003506200068436600462002895565b6200185e565b620004b36200069b3660046200245f565b6200186c565b62000350620006b236600462002639565b6200187f565b620006cf620006c93660046200245f565b62001899565b6040516200035f919062002af7565b62000350620006ef3660046200245f565b620018ae565b62000350620018c9565b620004b3620007103660046200245f565b620018d8565b620003af6200072736600462002667565b62001900565b620004b362001974565b620003af62000748366004620024e1565b62001987565b620003af6200075f366004620024a4565b62001a22565b620004b362001ba5565b620004b362001bff565b620003af6200078a366004620024a4565b62001c54565b620003af620007a1366004620024a4565b62001d31565b620003af620007b83660046200245f565b62001e0e565b6200038962001e8a565b620003af620007d936600462002639565b62001eec565b620003af620007f0366004620024e1565b62001f74565b620003af6200080736600462002847565b6200200f565b620003506200081e36600462002639565b62002147565b620003af62000835366004620024e1565b62002161565b600560205281600052604060002081815481106200085557fe5b6000918252602090912001546001600160a01b03169150829050565b600060205281600052604060002081815481106200085557fe5b60606001805480602002602001604051908101604052809291908181526020018280548015620008e557602002820191906000526020600020905b81546001600160a01b03168152600190910190602001808311620008c6575b505050505090505b90565b6003336000908152600d602052604090206002015460ff1660068111156200091457fe5b146200093d5760405162461bcd60e51b8152600401620009349062002c86565b60405180910390fd5b62000949813362000c8b565b50565b6001336000908152600d602052604090206002015460ff1660068111156200097057fe5b14620009905760405162461bcd60e51b8152600401620009349062002e91565b6200099e848484846200200f565b50505050565b60006005336000908152600d602052604090206002015460ff166006811115620009ca57fe5b14620009ea5760405162461bcd60e51b8152600401620009349062002d07565b33600090815260086020526040902080548390811062000a0657fe5b6000918252602090912001546001600160a01b031692915050565b600d602090815260009182526040918290208054600180830180548651600293821615610100026000190190911692909204601f81018690048602830186019096528582529194929390929083018282801562000ac25780601f1062000a965761010080835404028352916020019162000ac2565b820191906000526020600020905b81548152906001019060200180831162000aa457829003601f168201915b5050506002909301549192505060ff8116906001600160a01b036101009091041684565b6006336000908152600d602052604090206002015460ff16600681111562000b0a57fe5b14801562000b985750816001600160a01b031663abb428a66040518163ffffffff1660e01b815260040160606040518083038186803b15801562000b4d57600080fd5b505afa15801562000b62573d6000803e3d6000fd5b505050506040513d601f19601f8201168201806040525081019062000b889190620026a2565b604001516001600160a01b031633145b62000bb75760405162461bcd60e51b8152600401620009349062002d4f565b60016001600160a01b0383166000908152600b602052604090205460ff16600481111562000be157fe5b1462000c015760405162461bcd60e51b8152600401620009349062002df2565b62000c0d828262001eec565b5050565b6001600160a01b039081166000908152600660205260409020541690565b6001818154811062000c3d57fe5b6000918252602090912001546001600160a01b0316905081565b600460205281600052604060002081815481106200085557fe5b600a60205281600052604060002081815481106200085557fe5b604051630a57332d60e31b81526001600160a01b038316906352b999689062000cb990849060040162002988565b600060405180830381600087803b15801562000cd457600080fd5b505af115801562000ce9573d6000803e3d6000fd5b505050506001600160a01b0390811660009081526002602090815260408220805460018101825590835291200180546001600160a01b03191692909116919091179055565b60008787878787878760405162000d45906200223f565b62000d57979695949392919062002a6d565b604051809103906000f08015801562000d74573d6000803e3d6000fd5b506001600160a01b0398891660009081526003602090815260408220805460018101825590835291200180546001600160a01b031916919099161790975550505050505050565b60006006336000908152600d602052604090206002015460ff16600681111562000de157fe5b1462000e015760405162461bcd60e51b8152600401620009349062002e29565b50336000908152600a602052604090205490565b6001600160a01b039081166000908152600960205260409020541690565b62000e3d6200224d565b600d6000836001600160a01b03166001600160a01b0316815260200190815260200160002060405180608001604052908160008201548152602001600182018054600181600116156101000203166002900480601f01602080910402602001604051908101604052809291908181526020018280546001816001161561010002031660029004801562000f145780601f1062000ee85761010080835404028352916020019162000f14565b820191906000526020600020905b81548152906001019060200180831162000ef657829003601f168201915b5050509183525050600282015460209091019060ff16600681111562000f3657fe5b600681111562000f4257fe5b81526002919091015461010090046001600160a01b031660209091015292915050565b6003336000908152600d602052604090206002015460ff16600681111562000f8957fe5b1462000fa95760405162461bcd60e51b8152600401620009349062002be6565b6000836001600160a01b03166336da44686040518163ffffffff1660e01b815260040160206040518083038186803b15801562000fe557600080fd5b505afa15801562000ffa573d6000803e3d6000fd5b505050506040513d601f19601f8201168201806040525081019062001020919062002485565b6001600160a01b0385166000908152600f602052604090819020805460ff191660011790555190915042907f22561ca0666e99052dd8231a6c5c337204ed5658c357aa6afcd53c207acfac6790620010829033908590899089908990620029d6565b60405180910390a250505050565b6040516307fb74db60e21b81526000906001600160a01b03831690631fedd36c90620010c190339060040162002988565b602060405180830381600087803b158015620010dc57600080fd5b505af1158015620010f1573d6000803e3d6000fd5b505050506040513d601f19601f820116820180604052508101906200111791906200271b565b9050806001141562000c0d573360009081526004602090815260408220805460018101825590835291200180546001600160a01b0384166001600160a01b03199091161790555050565b8160011415620011d35760405163638e9a3d60e01b81526001600160a01b0384169063638e9a3d906200119990339060040162002988565b600060405180830381600087803b158015620011b457600080fd5b505af1158015620011c9573d6000803e3d6000fd5b50505050620012b4565b81600214156200120b5760405163ac42a41560e01b81526001600160a01b0384169063ac42a415906200119990339060040162002988565b81600314156200124557604051630887851b60e31b81526001600160a01b0382169063443c28d89062001199908690339060040162002a28565b8160041415620012b45760405163298abd8d60e11b81526001600160a01b038216906353157b1a906200127f908690339060040162002a28565b600060405180830381600087803b1580156200129a57600080fd5b505af1158015620012af573d6000803e3d6000fd5b505050505b505050565b600b6020526000908152604090205460ff1681565b6009602052600090815260409020546001600160a01b031681565b60606003336000908152600d602052604090206002015460ff1660068111156200130f57fe5b146200132f5760405162461bcd60e51b8152600401620009349062002f63565b816200134f5760405162461bcd60e51b8152600401620009349062002cd0565b620013c7338a8a8a8080602002602001604051908101604052809392919081815260200183836020028082843760009201919091525050604080516020808d0282810182019093528c82528e94509092508c918c918291908501908490808284376000920191909152508b92508a915062000d2e9050565b506040805180820190915260118152704d65646963696e6520637265617465642160781b602082015298975050505050505050565b606080620014096200088b565b91505090565b600c546001600160a01b031690565b6006336000908152600d602052604090206002015460ff1660068111156200144257fe5b14620014625760405162461bcd60e51b8152600401620009349062002dad565b62000c0d828262001c54565b600260205281600052604060002081815481106200085557fe5b600760205281600052604060002081815481106200085557fe5b600c546001600160a01b03163314620014ba57600080fd5b604051806080016040528086815260200185858080601f0160208091040260200160405190810160405280939291908181526020018383808284376000920191909152505050908252506020018360068111156200151457fe5b60068111156200152057fe5b81526001600160a01b03831660209182018190526000908152600d825260409020825181558282015180519192620015619260018501929091019062002275565b50604082015160028201805460ff191660018360068111156200158057fe5b02179055506060919091015160029091018054610100600160a81b0319166101006001600160a01b0393841602179055600e80546001810182556000919091527fbb7b4a454dc3493923482f07822329ed19e8244eff582cc204f8554c3620c3fd0180546001600160a01b03191691831691821790556040517f33a7170f028b1e4f5ba321064a00ed820856a920c7f9c6636fbcf385427b1b0f906200162890889062002b02565b60405180910390a25050505050565b600c546060906001600160a01b031633146200165257600080fd5b8260068111156200165f57fe5b6001600160a01b0383166000908152600d60205260409020600201805460ff191660018360068111156200168f57fe5b02179055505060408051808201909152600d81526c526f6c6520557064617465642160981b602082015292915050565b6004336000908152600d602052604090206002015460ff166006811115620016e357fe5b1480156200176e5750826001600160a01b031663abb428a66040518163ffffffff1660e01b815260040160606040518083038186803b1580156200172657600080fd5b505afa1580156200173b573d6000803e3d6000fd5b505050506040513d601f19601f82011682018060405250810190620017619190620026a2565b516001600160a01b031633145b6200178d5760405162461bcd60e51b8152600401620009349062002e29565b620012b483838362001f74565b60006004336000908152600d602052604090206002015460ff166006811115620017c057fe5b14620017e05760405162461bcd60e51b8152600401620009349062002ed5565b33600090815260056020526040902080548390811062000a0657fe5b60006006336000908152600d602052604090206002015460ff1660068111156200182257fe5b14620018425760405162461bcd60e51b8152600401620009349062002e29565b336000908152600a6020526040902080548390811062000a0657fe5b600e818154811062000c3d57fe5b60006200187982620018d8565b92915050565b600360205281600052604060002081815481106200085557fe5b600f6020526000908152604090205460ff1681565b6006602052600090815260409020546001600160a01b031681565b600c546001600160a01b031681565b6001600160a01b0381166000908152600b602052604081205460ff1660048111156200187957fe5b6002336000908152600d602052604090206002015460ff1660068111156200192457fe5b14620019445760405162461bcd60e51b8152600401620009349062002f1c565b60008211620019675760405162461bcd60e51b8152600401620009349062002fa8565b620012b483838362001161565b3360009081526020819052604090205490565b6000833384846040516200199b90620022fa565b620019aa949392919062002a42565b604051809103906000f080158015620019c7573d6000803e3d6000fd5b5033600090815260086020908152604080832080546001810182559084528284200180546001600160a01b039586166001600160a01b0319918216811790925598909416835260099091529020805490951617909355505050565b6040516307fb74db60e21b81526000906001600160a01b03841690631fedd36c9062001a5390339060040162002988565b602060405180830381600087803b15801562001a6e57600080fd5b505af115801562001a83573d6000803e3d6000fd5b505050506040513d601f19601f8201168201806040525081019062001aa991906200271b565b90508060021415620012b457336000908152600760209081526040808320805460018101825590845291832090910180546001600160a01b0319166001600160a01b03871690811790915581516355da145360e11b81529151909163abb428a6916004808301926060929190829003018186803b15801562001b2a57600080fd5b505afa15801562001b3f573d6000803e3d6000fd5b505050506040513d601f19601f8201168201806040525081019062001b659190620026a2565b516001600160a01b031614620012b45760405163d7dcbe3b60e01b81526001600160a01b0383169063d7dcbe3b906200127f908690339060040162002a28565b60006005336000908152600d602052604090206002015460ff16600681111562001bcb57fe5b1462001beb5760405162461bcd60e51b8152600401620009349062002d07565b503360009081526008602052604090205490565b60006001336000908152600d602052604090206002015460ff16600681111562001c2557fe5b1462001c455760405162461bcd60e51b8152600401620009349062002e91565b62001c4f62001974565b905090565b604051637bd6ee1f60e11b81526001600160a01b0382169063f7addc3e9062001c84908590339060040162002a28565b600060405180830381600087803b15801562001c9f57600080fd5b505af115801562001cb4573d6000803e3d6000fd5b5050336000908152600a602090815260408220805460018082018355918452919092200180546001600160a01b0319166001600160a01b038716179055915062001cfb9050565b6001600160a01b0383166000908152600b60205260409020805460ff1916600183600481111562001d2857fe5b02179055505050565b6005336000908152600d602052604090206002015460ff16600681111562001d5557fe5b14801562001de35750816001600160a01b031663abb428a66040518163ffffffff1660e01b815260040160606040518083038186803b15801562001d9857600080fd5b505afa15801562001dad573d6000803e3d6000fd5b505050506040513d601f19601f8201168201806040525081019062001dd39190620026a2565b602001516001600160a01b031633145b62001e025760405162461bcd60e51b8152600401620009349062002b7d565b62000c0d828262001a22565b6004336000908152600d602052604090206002015460ff16600681111562001e3257fe5b148062001e6057506005336000908152600d602052604090206002015460ff16600681111562001e5e57fe5b145b62001e7f5760405162461bcd60e51b8152600401620009349062002c30565b620009498162001090565b6060600e805480602002602001604051908101604052809291908181526020018280548015620008e5576020028201919060005260206000209081546001600160a01b03168152600190910190602001808311620008c6575050505050905090565b80600481111562001ef957fe5b6001600160a01b0383166000908152600b60205260409020805460ff1916600183600481111562001f2657fe5b0217905550336001600160a01b03167f778762ccb04f5a8838ed8914b13eb6f118224696959cbfa0cfea54133f76a7d5838360405162001f6892919062002ac9565b60405180910390a25050565b60008333848460405162001f889062002308565b62001f97949392919062002a42565b604051809103906000f08015801562001fb4573d6000803e3d6000fd5b5033600090815260056020908152604080832080546001810182559084528284200180546001600160a01b039586166001600160a01b0319918216811790925598909416835260069091529020805490951617909355505050565b600033600233426040516020016200202992919062002948565b60408051601f198184030181529082905262002045916200296a565b602060405180830381855afa15801562002063573d6000803e3d6000fd5b5050506040513d601f19601f820116820180604052508101906200208891906200271b565b60601c868686866040516200209d9062002316565b620020ae969594939291906200299c565b604051809103906000f080158015620020cb573d6000803e3d6000fd5b5033600090815260208181526040822080546001818101835591845291832090910180546001600160a01b039094166001600160a01b0319948516811790915581548083018355919092527fb10e2d527612073b26eecdfd717e6a320cf44b4afac2b0732d9fcbe2b7fa0cf60180549092161790555050505050565b600860205281600052604060002081815481106200085557fe5b6005336000908152600d602052604090206002015460ff1660068111156200218557fe5b148015620022135750826001600160a01b031663abb428a66040518163ffffffff1660e01b815260040160606040518083038186803b158015620021c857600080fd5b505afa158015620021dd573d6000803e3d6000fd5b505050506040513d601f19601f82011682018060405250810190620022039190620026a2565b602001516001600160a01b031633145b620022325760405162461bcd60e51b8152600401620009349062002b7d565b620012b483838362001987565b61156280620030b383390190565b6040805160808101825260008082526060602083015290918201908152600060209091015290565b828054600181600116156101000203166002900490600052602060002090601f016020900481019282601f10620022b857805160ff1916838001178555620022e8565b82800160010185558215620022e8579182015b82811115620022e8578251825591602001919060010190620022cb565b50620022f692915062002324565b5090565b6103bc806200461583390190565b6103b880620049d183390190565b610d3d8062004d8983390190565b620008ed91905b80821115620022f657600081556001016200232b565b60008083601f84011262002353578081fd5b5081356001600160401b038111156200236a578182fd5b60208301915083602080830285010111156200238557600080fd5b9250929050565b600082601f8301126200239d578081fd5b81356001600160401b03811115620023b3578182fd5b6020808202620023c58282016200303b565b83815293508184018583018287018401881015620023e257600080fd5b600092505b8483101562002412578035620023fd816200309c565b825260019290920191908301908301620023e7565b505050505092915050565b60008083601f8401126200242f578182fd5b5081356001600160401b0381111562002446578182fd5b6020830191508360208285010111156200238557600080fd5b60006020828403121562002471578081fd5b81356200247e816200309c565b9392505050565b60006020828403121562002497578081fd5b81516200247e816200309c565b60008060408385031215620024b7578081fd5b8235620024c4816200309c565b91506020830135620024d6816200309c565b809150509250929050565b600080600060608486031215620024f6578081fd5b833562002503816200309c565b9250602084013562002515816200309c565b9150604084013562002527816200309c565b809150509250925092565b600080600080600080600060e0888a0312156200254d578283fd5b87356200255a816200309c565b96506020880135955060408801356001600160401b03808211156200257d578485fd5b6200258b8b838c016200238c565b965060608a0135955060808a0135915080821115620025a8578485fd5b50620025b78a828b016200238c565b93505060a0880135620025ca816200309c565b8092505060c0880135905092959891949750929550565b600080600060408486031215620025f6578283fd5b833562002603816200309c565b925060208401356001600160401b038111156200261e578283fd5b6200262c868287016200241d565b9497909650939450505050565b600080604083850312156200264c578182fd5b823562002659816200309c565b946020939093013593505050565b6000806000606084860312156200267c578283fd5b833562002689816200309c565b925060208401359150604084013562002527816200309c565b600060608284031215620026b4578081fd5b82601f830112620026c3578081fd5b620026cf60606200303b565b808385606086011115620026e1578384fd5b835b600381101562002710578151620026fa816200309c565b84526020938401939190910190600101620026e3565b509095945050505050565b6000602082840312156200272d578081fd5b5051919050565b60008060008060008060008060c0898b03121562002750578182fd5b8835975060208901356001600160401b03808211156200276e578384fd5b6200277c8c838d0162002341565b909950975060408b0135965060608b01359150808211156200279c578384fd5b50620027ab8b828c0162002341565b9095509350506080890135620027c1816200309c565b8092505060a089013590509295985092959890939650565b600080600080600060808688031215620027f1578283fd5b8535945060208601356001600160401b038111156200280e578384fd5b6200281c888289016200241d565b90955093505060408601359150606086013562002839816200309c565b809150509295509295909350565b600080600080608085870312156200285d578182fd5b8435935060208501359250604085013562002878816200309c565b915060608501356200288a816200309c565b939692955090935050565b600060208284031215620028a7578081fd5b5035919050565b60008060408385031215620028c1578182fd5b823591506020830135620024d6816200309c565b6000815180845260208085019450808401835b838110156200290f5781516001600160a01b031687529582019590820190600101620028e8565b509495945050505050565b600081518084526200293481602086016020860162003062565b601f01601f19169290920160200192915050565b60609290921b6bffffffffffffffffffffffff19168252601482015260340190565b600082516200297e81846020870162003062565b9190910192915050565b6001600160a01b0391909116815260200190565b6001600160a01b0396871681529486166020860152604085019390935260608401919091528316608083015290911660a082015260c00190565b6001600160a01b03868116825285811660208301528416604082015260806060820181905281018290526000828460a084013781830160a090810191909152601f909201601f19160101949350505050565b6001600160a01b0392831681529116602082015260400190565b6001600160a01b03948516815292841660208401529083166040830152909116606082015260800190565b600060018060a01b03808a16835288602084015260e0604084015262002a9760e0840189620028d5565b876060850152838103608085015262002ab18188620028d5565b9590911660a0840152505060c0015295945050505050565b6001600160a01b03929092168252602082015260400190565b6000602082526200247e6020830184620028d5565b901515815260200190565b90815260200190565b60008582526080602083015262002b2660808301866200291a565b905062002b338462003091565b60408201939093526001600160a01b039190911660609091015292915050565b602081016005831062002b6257fe5b91905290565b6000602082526200247e60208301846200291a565b60208082526043908201527f4f6e6c79204469737472696275746f72206f722063757272656e74206f776e6560408201527f72206f66207061636b6167652063616e2063616c6c20746869732066756e637460608201526234b7b760e91b608082015260a00190565b6020808252602a908201527f4f6e6c79204d616e7566616374757265722063616e20726571756573742072616040820152691dc81b585d195c9a585b60b21b606082015260800190565b60208082526036908201527f4f6e6c792057686f6c6573616c657220616e64204469737472696275746f722060408201527531b0b71031b0b636103a3434b990333ab731ba34b7b760511b606082015260800190565b6020808252602a908201527f4f6e6c79204d616e7566616374757265722063616e20616363657373207468696040820152693990333ab731ba34b7b760b11b606082015260800190565b6020808252601f908201527f526563696576657220547970652073686f756c6420626520646566696e656400604082015260600190565b60208082526028908201527f4f6e6c79204469737472696275746f722043616e2063616c6c207468697320666040820152673ab731ba34b7b71760c11b606082015260800190565b602080825260409082018190527f4f6e6c7920437573746f6d6572206f722063757272656e74206f776e6572206f908201527f66207061636b6167652063616e2063616c6c20746869732066756e6374696f6e606082015260800190565b60208082526025908201527f4f6e6c7920437573746f6d65722043616e2063616c6c20746869732066756e636040820152643a34b7b71760d91b606082015260800190565b6020808252601c908201527f4d65646963696e65204d75737420626520617420437573746f6d657200000000604082015260600190565b60208082526042908201527f4f6e6c792057686f6c6573616c6572206f722063757272656e74206f776e657260408201527f206f66207061636b6167652063616e2063616c6c20746869732066756e63746960608201526137b760f11b608082015260a00190565b60208082526024908201527f526f6c653d3e537570706c6965722063616e2075736520746869732066756e636040820152633a34b7b760e11b606082015260800190565b60208082526027908201527f4f6e6c792057686f6c6573616c65722043616e2063616c6c20746869732066756040820152663731ba34b7b71760c91b606082015260800190565b60208082526027908201527f4f6e6c79205472616e73706f727465722063616e2063616c6c207468697320666040820152663ab731ba34b7b760c91b606082015260800190565b60208082526025908201527f4f6e6c79204d616e7566616374757265722063616e20637265617465204d65646040820152646963696e6560d81b606082015260800190565b6020808252601d908201527f5472616e73706f72746572205479706520697320696e636f7272656374000000604082015260600190565b600060208252825160208301526020830151608060408401526200300760a08401826200291a565b60408501519150620030198262003091565b6060848101929092529301516001600160a01b03166080909201919091525090565b6040518181016001600160401b03811182821017156200305a57600080fd5b604052919050565b60005b838110156200307f57818101518382015260200162003065565b838111156200099e5750506000910152565b600781106200094957fe5b6001600160a01b03811681146200094957600080fdfe60806040523480156200001157600080fd5b506040516200156238038062001562833981810160405260e08110156200003757600080fd5b815160208301516040808501805191519395929483019291846401000000008211156200006357600080fd5b9083019060208201858111156200007957600080fd5b82518660208202830111640100000000821117156200009757600080fd5b82525081516020918201928201910280838360005b83811015620000c6578181015183820152602001620000ac565b505050509050016040526020018051906020019092919080516040519392919084640100000000821115620000fa57600080fd5b9083019060208201858111156200011057600080fd5b82518660208202830111640100000000821117156200012e57600080fd5b82525081516020918201928201910280838360005b838110156200015d57818101518382015260200162000143565b505050509190910160409081526020838101519390910151600080546001600160a01b038d166001600160a01b0319918216811790925560048054909116909117905560018a905588519395509350620001bf926002925090880190620002a1565b5060088490558251620001da906003906020860190620002a1565b5080600114156200020657600580546001600160a01b0319166001600160a01b0384161790556200022c565b80600214156200022c57600680546001600160a01b0319166001600160a01b0384161790555b6000876040516200023d906200030b565b6001600160a01b03909116815260405190819003602001906000f0801580156200026b573d6000803e3d6000fd5b50600980546001600160a01b0390921661010002610100600160a81b031990921691909117905550620003439650505050505050565b828054828255906000526020600020908101928215620002f9579160200282015b82811115620002f957825182546001600160a01b0319166001600160a01b03909116178255602090920191600190910190620002c2565b506200030792915062000319565b5090565b6106a18062000ec183390190565b6200034091905b80821115620003075780546001600160a01b031916815560010162000320565b90565b610b6e80620003536000396000f3fe608060405234801561001057600080fd5b506004361061009e5760003560e01c8063ac42a41511610066578063ac42a41514610197578063c8f5f189146101bd578063d2f3fcc7146101e3578063e002c8a5146101eb578063f5c0e383146102e55761009e565b80631fedd36c146100a35780632f1d7588146100db57806393a668b71461010b578063aab3a9d614610131578063abb428a614610157575b600080fd5b6100c9600480360360208110156100b957600080fd5b50356001600160a01b0316610313565b60408051918252519081900360200190f35b610109600480360360408110156100f157600080fd5b506001600160a01b038135811691602001351661053e565b005b6101096004803603602081101561012157600080fd5b50356001600160a01b03166105c7565b6101096004803603602081101561014757600080fd5b50356001600160a01b0316610634565b61015f610686565b6040518082606080838360005b8381101561018457818101518382015260200161016c565b5050505090500191505060405180910390f35b610109600480360360208110156101ad57600080fd5b50356001600160a01b03166106c1565b610109600480360360208110156101d357600080fd5b50356001600160a01b0316610842565b6100c96108ab565b6101f36108c4565b60405180886001600160a01b03166001600160a01b031681526020018781526020018060200186815260200180602001856001600160a01b03166001600160a01b03168152602001846001600160a01b03166001600160a01b03168152602001838103835288818151815260200191508051906020019060200280838360005b8381101561028b578181015183820152602001610273565b50505050905001838103825286818151815260200191508051906020019060200280838360005b838110156102ca5781810151838201526020016102b2565b50505050905001995050505050505050505060405180910390f35b610109600480360360408110156102fb57600080fd5b506001600160a01b03813581169160200135166109eb565b6005546000906001600160a01b038381169116148061033f57506006546001600160a01b038381169116145b61037a5760405162461bcd60e51b8152600401808060200182810382526035815260200180610a986035913960400191505060405180910390fd5b60095460019060ff16600681111561038e57fe5b10156103dd576040805162461bcd60e51b8152602060048201526019602482015278141c9bd91d58dd081b9bdd081c1a58dad959081d5c081e595d603a1b604482015290519081900360640190fd5b6005546001600160a01b03838116911614801561040a5750600160095460ff16600681111561040857fe5b145b1561048e576009805460ff1916600390811790915560055481546001600160a01b039091169190600019810190811061043f57fe5b60009182526020918290200154604080516002815260039381019390935280516001600160a01b03909216923092600080516020610a78833981519152929181900390910190a4506001610539565b6006546001600160a01b0383811691161480156104bb5750600260095460ff1660068111156104b957fe5b145b15610539576009805460ff19166004179055600654600380546001600160a01b039092169160001981019081106104ee57fe5b60009182526020918290200154604080516003815260049381019390935280516001600160a01b03909216923092600080516020610a78833981519152929181900390910190a45060025b919050565b6006546001600160a01b0382811691161461058a5760405162461bcd60e51b8152600401808060200182810382526023815260200180610aef6023913960400191505060405180910390fd5b600780546001600160a01b0319166001600160a01b03841617905560055b6009805460ff191660018360068111156105be57fe5b02179055505050565b6006546001600160a01b038281169116146106135760405162461bcd60e51b8152600401808060200182810382526023815260200180610aef6023913960400191505060405180910390fd5b60045b6009805460ff1916600183600681111561062c57fe5b021790555050565b600380546001810182556000919091527fc2575a0e9e593c00f959f8c92f12db2869c3395a3b0502d05e2516446f71f85b0180546001600160a01b0319166001600160a01b0392909216919091179055565b61068e610a59565b50604080516060810182526005546001600160a01b03908116825260065481166020830152600754169181019190915290565b6003805460001981019081106106d357fe5b6000918252602090912001546001600160a01b038281169116146107285760405162461bcd60e51b8152600401808060200182810382526027815260200180610b126027913960400191505060405180910390fd5b600060095460ff16600681111561073b57fe5b1461078d576040805162461bcd60e51b815260206004820181905260248201527f5061636b616765206d757374206265206174204d616e7566616374757265722e604482015290519081900360640190fd5b6005546001600160a01b0316156107f0576009805460ff1916600190811790915560055460408051838152602081019390935280516001600160a01b0392831693928516923092600080516020610a7883398151915292918290030190a461083f565b6009805460ff191660029081179091556006546040805160018152602081019390935280516001600160a01b0392831693928516923092600080516020610a7883398151915292918290030190a45b50565b6007546001600160a01b038281169116146108a4576040805162461bcd60e51b815260206004820181905260248201527f5468697320437573746f6d6572206973206e6f74204173736f6369617465642e604482015290519081900360640190fd5b6006610616565b60095460009060ff1660068111156108bf57fe5b905090565b600080606060006060600080600460009054906101000a90046001600160a01b031660015460026008546003600660009054906101000a90046001600160a01b0316600760009054906101000a90046001600160a01b03168480548060200260200160405190810160405280929190818152602001828054801561097157602002820191906000526020600020905b81546001600160a01b03168152600190910190602001808311610953575b50505050509450828054806020026020016040519081016040528092919081815260200182805480156109cd57602002820191906000526020600020905b81546001600160a01b031681526001909101906020018083116109af575b50505050509250965096509650965096509650965090919293949596565b6005546001600160a01b03828116911614610a375760405162461bcd60e51b8152600401808060200182810382526022815260200180610acd6022913960400191505060405180910390fd5b600680546001600160a01b0319166001600160a01b03841617905560026105a8565b6040518060600160405280600390602082028036833750919291505056fe7e89c4b1a4e2b51aae84eb1f90e8a34cb792ece5ac5cb63db4830c891220b28d4f6e6c792057686f6c6573616c6572206f72204469737472696275746f722063616e2063616c6c20746869732066756e6374696f6e746869732057686f6c6573616c6572206973206e6f74204173736f6369617465642e54686973204469737472696275746f72206973206e6f74204173736f6369617465642e4f6e6c79205472616e73706f727465722063616e2063616c6c20746869732066756e6374696f6ea2646970667358221220ff7c0e5f2c0149b775e690e114251c733f4735bb32fd29bd6767e2b39ee93dcb64736f6c634300060600336080604052600060025534801561001557600080fd5b506040516106a13803806106a183398101604081905261003491610059565b600080546001600160a01b0319166001600160a01b0392909216919091179055610087565b60006020828403121561006a578081fd5b81516001600160a01b0381168114610080578182fd5b9392505050565b61060b806100966000396000f3fe608060405234801561001057600080fd5b50600436106100415760003560e01c806327506f531461004657806378ce1365146100645780639ace38c214610079575b600080fd5b61004e61009f565b60405161005b91906104a3565b60405180910390f35b61006c6102a6565b60405161005b91906105cc565b61008c610087366004610440565b6102ac565b60405161005b979695949392919061056c565b600254606090818167ffffffffffffffff811180156100bd57600080fd5b506040519080825280602002602001820160405280156100f757816020015b6100e4610405565b8152602001906001900390816100dc5790505b50905060005b8281101561029f57600081815260016020818152604092839020835160e08101855281548152818401546001600160a01b0390811682850152600280840154909116828701526003830154606083015260048301805487516101009782161597909702600019011691909104601f81018590048502860185019096528585529094919360808601939092908301828280156101d95780601f106101ae576101008083540402835291602001916101d9565b820191906000526020600020905b8154815290600101906020018083116101bc57829003601f168201915b505050918352505060058201805460408051602060026001851615610100026000190190941693909304601f810184900484028201840190925281815293820193929183018282801561026d5780601f106102425761010080835404028352916020019161026d565b820191906000526020600020905b81548152906001019060200180831161025057829003601f168201915b5050505050815260200160068201548152505082828151811061028c57fe5b60209081029190910101526001016100fd565b5091505090565b60025481565b60016020818152600092835260409283902080548184015460028084015460038501546004860180548a516101009a8216159a909a02600019011693909304601f810188900488028901880190995288885293976001600160a01b039384169793909116959394938301828280156103655780601f1061033a57610100808354040283529160200191610365565b820191906000526020600020905b81548152906001019060200180831161034857829003601f168201915b5050505060058301805460408051602060026001851615610100026000190190941693909304601f81018490048402820184019092528181529495949350908301828280156103f55780601f106103ca576101008083540402835291602001916103f5565b820191906000526020600020905b8154815290600101906020018083116103d857829003601f168201915b5050505050908060060154905087565b6040805160e08101825260008082526020820181905291810182905260608082018390526080820181905260a082015260c081019190915290565b600060208284031215610451578081fd5b5035919050565b60008151808452815b8181101561047d57602081850181015186830182015201610461565b8181111561048e5782602083870101525b50601f01601f19169290920160200192915050565b60208082528251828201819052600091906040908185019080840286018301878501865b8381101561055e57888303603f19018552815180518452878101516001600160a01b03908116898601528782015116878501526060808201519085015260808082015160e0828701819052919061052083880182610458565b91505060a09150818301518682038388015261053c8282610458565b60c09485015197909401969096525050948701949250908601906001016104c7565b509098975050505050505050565b8781526001600160a01b038781166020830152861660408201526060810185905260e0608082018190526000906105a590830186610458565b82810360a08401526105b78186610458565b9150508260c083015298975050505050505050565b9081526020019056fea2646970667358221220ff8e17c21f1123467533f62f94e24496879b48feeea0603e6e19cd560bd8825764736f6c63430006060033608060405234801561001057600080fd5b506040516103bc3803806103bc8339818101604052608081101561003357600080fd5b50805160208201516040830151606090930151600080546001600160a01b03199081166001600160a01b03948516908117835560018054831696861696909617909555600280548216909517909455600380548516958416959095179094556004805490931691161760ff60a01b191690556103079081906100b590396000f3fe608060405234801561001057600080fd5b50600436106100415760003560e01c806353157b1a14610046578063c0114d0614610076578063f7addc3e14610090575b600080fd5b6100746004803603604081101561005c57600080fd5b506001600160a01b03813581169160200135166100be565b005b61007e610190565b60408051918252519081900360200190f35b610074600480360360408110156100a657600080fd5b506001600160a01b03813581169160200135166101b0565b6003546001600160a01b0382811691161461010a5760405162461bcd60e51b815260040180806020018281038252603381526020018061026f6033913960400191505060405180910390fd5b6004805460ff60a01b1916600160a01b17808255600254604080516305e3aeb160e31b81526001600160a01b039384169481019490945290821660248401525190841691632f1d758891604480830192600092919082900301818387803b15801561017457600080fd5b505af1158015610188573d6000803e3d6000fd5b505050505050565b600454600090600160a01b900460ff1660028111156101ab57fe5b905090565b6004546001600160a01b038281169116146101fc5760405162461bcd60e51b81526004018080602001828103825260308152602001806102a26030913960400191505060405180910390fd5b600480546002919060ff60a01b1916600160a01b830217905550816001600160a01b031663c8f5f189826040518263ffffffff1660e01b815260040180826001600160a01b03166001600160a01b03168152602001915050600060405180830381600087803b15801561017457600080fdfe4f6e6c79204173736f636961746564207472616e73706f727465722063616e2063616c6c20746869732066756e6374696f6e2e4f6e6c79204173736f6369617465642072656365697665722063616e2063616c6c20746869732066756e6374696f6e2ea26469706673582212208a7241901af661a6581f164943d9638b54ada5953fa997530d8b4c818770886f64736f6c63430006060033608060405234801561001057600080fd5b506040516103b83803806103b88339818101604052608081101561003357600080fd5b50805160208201516040830151606090930151600080546001600160a01b03199081166001600160a01b03948516908117835560018054831696861696909617909555600280548216909517909455600380548516958416959095179094556004805490931691161760ff60a01b191690556103039081906100b590396000f3fe608060405234801561001057600080fd5b50600436106100415760003560e01c8063443c28d814610046578063d2f3fcc714610076578063d7dcbe3b14610090575b600080fd5b6100746004803603604081101561005c57600080fd5b506001600160a01b03813581169160200135166100be565b005b61007e610190565b60408051918252519081900360200190f35b610074600480360360408110156100a657600080fd5b506001600160a01b03813581169160200135166101b0565b6003546001600160a01b0382811691161461010a5760405162461bcd60e51b815260040180806020018281038252602f81526020018061029f602f913960400191505060405180910390fd5b6004805460ff60a01b1916600160a01b178082556002546040805163f5c0e38360e01b81526001600160a01b03938416948101949094529082166024840152519084169163f5c0e38391604480830192600092919082900301818387803b15801561017457600080fd5b505af1158015610188573d6000803e3d6000fd5b505050505050565b600454600090600160a01b900460ff1660028111156101ab57fe5b905090565b6004546001600160a01b038281169116146101fc5760405162461bcd60e51b815260040180806020018281038252603081526020018061026f6030913960400191505060405180910390fd5b600480546002919060ff60a01b1916600160a01b830217905550816001600160a01b03166393a668b7826040518263ffffffff1660e01b815260040180826001600160a01b03166001600160a01b03168152602001915050600060405180830381600087803b15801561017457600080fdfe4f6e6c79204173736f6369617465642072656365697665722063616e2063616c6c20746869732066756e6374696f6e2e4f6e6c79204173736f63696174656420736869707065722063616e2063616c6c20746869732066756e6374696f6e2ea2646970667358221220a91af15acd122dd2cdcf48ce21f2bf2923a51463fd255bb70b4f751f0ae9256464736f6c63430006060033608060405234801561001057600080fd5b50604051610d3d380380610d3d83398101604081905261002f91610100565b600080546001600160a01b03199081166001600160a01b0389811691821784556001805484168a831617905560028890556003879055600480548416878316179055600580548416918616919091179055600680549092161760ff60a01b19169055604051829061009f906100f3565b6100a99190610173565b604051809103906000f0801580156100c5573d6000803e3d6000fd5b50600880546001600160a01b0319166001600160a01b03929092169190911790555061019f95505050505050565b6106a18061069c83390190565b60008060008060008060c08789031215610118578182fd5b865161012381610187565b602088015190965061013481610187565b809550506040870151935060608701519250608087015161015481610187565b60a088015190925061016581610187565b809150509295509295509295565b6001600160a01b0391909116815260200190565b6001600160a01b038116811461019c57600080fd5b50565b6104ee806101ae6000396000f3fe608060405234801561001057600080fd5b50600436106100575760003560e01c806336da44681461005c57806352b999681461007a578063638e9a3d1461008f5780636b099dca146100a257806380723520146100b7575b600080fd5b6100646100d2565b6040516100719190610338565b60405180910390f35b61008d61008836600461030a565b6100e1565b005b61008d61009d36600461030a565b6101bc565b6100aa610282565b60405161007191906104af565b6100bf6102a2565b604051610071979695949392919061034c565b6006546001600160a01b031681565b6005546001600160a01b038281169116146101175760405162461bcd60e51b815260040161010e906103cf565b60405180910390fd5b6001600654600160a01b900460ff16600281111561013157fe5b1461014e5760405162461bcd60e51b815260040161010e9061039c565b6006805460ff60a01b1916600160a11b179055600554600454600180546040516001600160a01b039485169493841693909116917f7e89c4b1a4e2b51aae84eb1f90e8a34cb792ece5ac5cb63db4830c891220b28d916101b1919060029061038e565b60405180910390a450565b6004546001600160a01b038281169116146101e95760405162461bcd60e51b815260040161010e9061045f565b6000600654600160a01b900460ff16600281111561020357fe5b146102205760405162461bcd60e51b815260040161010e90610428565b6006805460ff60a01b1916600160a01b179055600554600454600180546040516001600160a01b039485169493841693909116917f7e89c4b1a4e2b51aae84eb1f90e8a34cb792ece5ac5cb63db4830c891220b28d916101b19190819061038e565b600654600090600160a01b900460ff16600281111561029d57fe5b905090565b600154600280546003546006546004546005546000968796879687968796879687966001600160a01b0396871696949593948084169492811693911691600160a01b90910460ff16908111156102f457fe5b959d949c50929a50909850965094509092509050565b60006020828403121561031b578081fd5b81356001600160a01b0381168114610331578182fd5b9392505050565b6001600160a01b0391909116815260200190565b6001600160a01b0397881681526020810196909652604086019490945291851660608501528416608084015290921660a082015260c081019190915260e00190565b918252602082015260400190565b602080825260199082015278141c9bd91d58dd081b9bdd081c1a58dad959081d5c081e595d603a1b604082015260600190565b60208082526039908201527f4f6e6c79204d616e756661637475726572206f6620746865207061636b6167656040820152782063616e20726563656965766520746865207061636b61676560381b606082015260800190565b6020808252601c908201527f5061636b616765206d75737420626520617420537570706c6965722e00000000604082015260600190565b60208082526030908201527f4f6e6c79207472616e73706f72746572206f6620746865207061636b6167652060408201526f63616e207069636b207061636b61676560801b606082015260800190565b9081526020019056fea26469706673582212205161f816ca96e0fe78683b57da877047402870966ee2704a09ca9a60d9eef2c864736f6c634300060600336080604052600060025534801561001557600080fd5b506040516106a13803806106a183398101604081905261003491610059565b600080546001600160a01b0319166001600160a01b0392909216919091179055610087565b60006020828403121561006a578081fd5b81516001600160a01b0381168114610080578182fd5b9392505050565b61060b806100966000396000f3fe608060405234801561001057600080fd5b50600436106100415760003560e01c806327506f531461004657806378ce1365146100645780639ace38c214610079575b600080fd5b61004e61009f565b60405161005b91906104a3565b60405180910390f35b61006c6102a6565b60405161005b91906105cc565b61008c610087366004610440565b6102ac565b60405161005b979695949392919061056c565b600254606090818167ffffffffffffffff811180156100bd57600080fd5b506040519080825280602002602001820160405280156100f757816020015b6100e4610405565b8152602001906001900390816100dc5790505b50905060005b8281101561029f57600081815260016020818152604092839020835160e08101855281548152818401546001600160a01b0390811682850152600280840154909116828701526003830154606083015260048301805487516101009782161597909702600019011691909104601f81018590048502860185019096528585529094919360808601939092908301828280156101d95780601f106101ae576101008083540402835291602001916101d9565b820191906000526020600020905b8154815290600101906020018083116101bc57829003601f168201915b505050918352505060058201805460408051602060026001851615610100026000190190941693909304601f810184900484028201840190925281815293820193929183018282801561026d5780601f106102425761010080835404028352916020019161026d565b820191906000526020600020905b81548152906001019060200180831161025057829003601f168201915b5050505050815260200160068201548152505082828151811061028c57fe5b60209081029190910101526001016100fd565b5091505090565b60025481565b60016020818152600092835260409283902080548184015460028084015460038501546004860180548a516101009a8216159a909a02600019011693909304601f810188900488028901880190995288885293976001600160a01b039384169793909116959394938301828280156103655780601f1061033a57610100808354040283529160200191610365565b820191906000526020600020905b81548152906001019060200180831161034857829003601f168201915b5050505060058301805460408051602060026001851615610100026000190190941693909304601f81018490048402820184019092528181529495949350908301828280156103f55780601f106103ca576101008083540402835291602001916103f5565b820191906000526020600020905b8154815290600101906020018083116103d857829003601f168201915b5050505050908060060154905087565b6040805160e08101825260008082526020820181905291810182905260608082018390526080820181905260a082015260c081019190915290565b600060208284031215610451578081fd5b5035919050565b60008151808452815b8181101561047d57602081850181015186830182015201610461565b8181111561048e5782602083870101525b50601f01601f19169290920160200192915050565b60208082528251828201819052600091906040908185019080840286018301878501865b8381101561055e57888303603f19018552815180518452878101516001600160a01b03908116898601528782015116878501526060808201519085015260808082015160e0828701819052919061052083880182610458565b91505060a09150818301518682038388015261053c8282610458565b60c09485015197909401969096525050948701949250908601906001016104c7565b509098975050505050505050565b8781526001600160a01b038781166020830152861660408201526060810185905260e0608082018190526000906105a590830186610458565b82810360a08401526105b78186610458565b9150508260c083015298975050505050505050565b9081526020019056fea2646970667358221220ff8e17c21f1123467533f62f94e24496879b48feeea0603e6e19cd560bd8825764736f6c63430006060033a2646970667358221220c273f1c696ae91e47b35f7ffef2f2d51b033e748fd08d4f5531b838565fd1bcc64736f6c63430006060033",
  "immutableReferences": {},
  "source": "pragma solidity ^0.6.6;\r\npragma experimental ABIEncoderV2;\r\n\r\nimport './RawMaterial.sol';\r\nimport './Supplier.sol';\r\nimport './Transporter.sol';\r\nimport './Medicine.sol';\r\nimport './Manufacturer.sol';\r\nimport './MedicineW_D.sol';\r\nimport './Wholesaler.sol';\r\nimport './MedicineD_C.sol';\r\nimport './Distributor.sol';\r\nimport './Customer.sol';\r\n\r\n\r\n//// New supply chain : supplier -> transporter -> manufacturer -> transporter -> whole-saler -> transporter -> distributor -> transporter -> customer/hospital/pharmacy\r\n\r\n\r\ncontract SupplyChain is Supplier, Transporter, Manufacturer, Wholesaler, Distributor, Customer {\r\n    \r\n    address public Owner;\r\n    \r\n    constructor() public {\r\n        Owner = msg.sender;\r\n    }\r\n    \r\n    modifier onlyOwner() {\r\n        require(Owner == msg.sender);\r\n        _;\r\n    }\r\n    \r\n    \r\n    modifier checkUser(address addr) {\r\n        require(addr == msg.sender);\r\n        _;\r\n    }\r\n    \r\n    enum roles {\r\n        noRole,\r\n        supplier,\r\n        transporter,\r\n        manufacturer,\r\n        wholesaler,\r\n        distributor,\r\n        customer\r\n    }\r\n    \r\n    \r\n    //////////////// Events ////////////////////\r\n    \r\n    event UserRegister(address indexed _address, bytes32 name);\r\n    event buyEvent(address buyer, address seller, address packageAddr, bytes signature, uint indexed now);\r\n    event respondEvent(address buyer, address seller, address packageAddr, bytes signature, uint indexed now);\r\n    event sendEvent(address seller, address buyer, address packageAddr, bytes signature, uint indexed now);\r\n    event receivedEvent(address buyer, address seller, address packageAddr, bytes signature, uint indexed now);\r\n    \r\n    /////////////// Users (Only Owner Executable) //////////////////////\r\n    \r\n    struct userData {\r\n        bytes32 name;\r\n        string userLoc;\r\n        roles role;\r\n        address userAddr;\r\n    }\r\n    \r\n    mapping (address => userData) public userInfo;\r\n\r\n    address[] public userList;\r\n    \r\n    function registerUser(bytes32 name, string calldata loc, uint role, address _userAddr) external onlyOwner {\r\n        userInfo[_userAddr] = userData({\r\n            name: name,\r\n            userLoc: loc,\r\n            role: roles(role),\r\n            userAddr: _userAddr\r\n        });\r\n\r\n        userList.push(_userAddr);\r\n\r\n        emit UserRegister(_userAddr, name);\r\n    }\r\n\r\n    function getAllUsers() external view returns(address[] memory) {\r\n        return userList;\r\n    }\r\n\r\n    function getOwner() public view returns(address) {\r\n        return Owner;\r\n    }\r\n    \r\n    function changeUserRole(uint _role, address _addr) external onlyOwner returns(string memory) {\r\n        userInfo[_addr].role = roles(_role);\r\n       return \"Role Updated!\";\r\n    }\r\n    \r\n    function getUserInfo(address _address) external view returns(\r\n        userData memory\r\n        ) {\r\n        return userInfo[_address];\r\n    }\r\n    \r\n\r\n    /////////////// Supplier //////////////////////\r\n    \r\n    \r\n    function supplierCreatesRawPackage(\r\n        bytes32 _description,\r\n        uint _quantity,\r\n        address _transporterAddr,\r\n        address _manufacturerAddr\r\n        ) external {\r\n            \r\n        require(userInfo[msg.sender].role == roles.supplier, \"Role=>Supplier can use this function\");\r\n        \r\n        createRawMaterialPackage(\r\n            _description,\r\n            _quantity,\r\n            _transporterAddr,\r\n            _manufacturerAddr\r\n        );\r\n    }\r\n    \r\n    function supplierGetPackageCount() external view returns(uint) {\r\n        require(userInfo[msg.sender].role == roles.supplier, \"Role=>Supplier can use this function\");\r\n        \r\n        return getNoOfPackagesOfSupplier();\r\n    }\r\n    \r\n\r\n    function supplierGetRawMaterialAddresses() external view returns(address[] memory) {\r\n        address[] memory ret = getAllPackages();\r\n        return ret;\r\n    }\r\n\r\n    \r\n    \r\n    ///////////////  Transporter ///////////////\r\n    \r\n    \r\n    function transporterHandlePackage(\r\n        address _address,\r\n        uint transporterType,\r\n        address cid\r\n        ) external {\r\n            \r\n        require(\r\n            userInfo[msg.sender].role == roles.transporter,\r\n            \"Only Transporter can call this function\"\r\n        );\r\n        require(\r\n            transporterType > 0,\r\n            \"Transporter Type is incorrect\"\r\n        );\r\n        \r\n        handlePackage(_address, transporterType, cid);\r\n    }\r\n    \r\n    \r\n    ///////////////  Manufacturer ///////////////\r\n\r\n    mapping(address => bool) public requestedByManufacturer;\r\n    \r\n    \r\n    function manufacturerReceivedRawMaterials(address _addr) external {\r\n        require(userInfo[msg.sender].role == roles.manufacturer, \"Only Manufacturer can access this function\");\r\n        manufacturerReceivedPackage(_addr, msg.sender);\r\n    }\r\n    \r\n    function manufacturerCreatesNewMedicine(\r\n        bytes32 _description,\r\n        address[] calldata _rawAddr,\r\n        uint _quantity,\r\n        address[] calldata _transporterAddr,\r\n        address _receiverAddr,\r\n        uint RcvrType\r\n        ) external returns(string memory){\r\n            \r\n        require(userInfo[msg.sender].role == roles.manufacturer, \"Only Manufacturer can create Medicine\");\r\n        require(RcvrType != 0, \"Reciever Type should be defined\");\r\n        \r\n        manufacturerCreatesMedicine(\r\n            msg.sender,\r\n            _description,\r\n            _rawAddr,\r\n            _quantity,\r\n            _transporterAddr,\r\n            _receiverAddr,\r\n            RcvrType\r\n        );\r\n        \r\n        return \"Medicine created!\";\r\n    }\r\n\r\n    function buyRawMaterial(\r\n        address packageAddr,\r\n        bytes calldata signature\r\n    ) external {\r\n        // only manufacturer can call this\r\n        require(userInfo[msg.sender].role == roles.manufacturer, \"Only Manufacturer can request raw material\");\r\n\r\n        // get the package contract\r\n        address supplierAddr = RawMaterial(packageAddr).supplier();\r\n\r\n        requestedByManufacturer[packageAddr] = true;\r\n\r\n        // emit the event\r\n        emit buyEvent(msg.sender, supplierAddr, packageAddr, signature, block.timestamp);\r\n    }\r\n    \r\n\r\n    ///////////////  Wholesaler  ///////////////\r\n\r\n    \r\n    function wholesalerReceivedMedicine(\r\n        address _address\r\n        ) external {\r\n        require(\r\n            userInfo[msg.sender].role == roles.wholesaler || userInfo[msg.sender].role == roles.distributor,\r\n            \"Only Wholesaler and Distributor can call this function\"\r\n        );\r\n        \r\n        medicineRecievedAtWholesaler(\r\n            _address\r\n        );\r\n    }\r\n    \r\n    function transferMedicineW_D(\r\n        address _address,\r\n        address transporter,\r\n        address receiver) external {\r\n        require(\r\n            userInfo[msg.sender].role == roles.wholesaler &&\r\n            msg.sender == Medicine(_address).getWDC()[0],\r\n            \"Only Wholesaler or current owner of package can call this function\"\r\n        );\r\n        \r\n        transferMedicineWtoD(\r\n            _address,\r\n            transporter,\r\n            receiver\r\n        );\r\n    }\r\n    \r\n    function getBatchIdByIndexWD(uint index) external view returns(address packageID) {\r\n        require(\r\n            userInfo[msg.sender].role == roles.wholesaler,\r\n            \"Only Wholesaler Can call this function.\"\r\n        );\r\n        return MedicineWtoD[msg.sender][index];\r\n    }\r\n\r\n    function getSubContractWD(address _address) external view returns (address SubContractWD) {\r\n        return MedicineWtoDTxContract[_address];\r\n    }\r\n\r\n\r\n    ///////////////  Distributor  ///////////////\r\n\r\n\r\n    function distributorReceivedMedicine(\r\n      address _address,\r\n      address cid\r\n    ) external {\r\n        require(\r\n            userInfo[msg.sender].role == roles.distributor &&\r\n            msg.sender == Medicine(_address).getWDC()[1],\r\n            \"Only Distributor or current owner of package can call this function\"  \r\n        );\r\n        \r\n        medicineRecievedAtDistributor(\r\n            _address,\r\n            cid\r\n        );\r\n    }\r\n\r\n    function distributorTransferMedicinetoCustomer(\r\n        address _address,\r\n        address transporter,\r\n        address receiver\r\n    ) external {\r\n        require(\r\n            userInfo[msg.sender].role == roles.distributor &&\r\n            msg.sender == Medicine(_address).getWDC()[1],\r\n            \"Only Distributor or current owner of package can call this function\"\r\n        );\r\n        transferMedicineDtoC(_address, transporter, receiver);\r\n    }\r\n    \r\n    function getBatchesCountDC() external view returns (uint count){\r\n        require(\r\n            userInfo[msg.sender].role == roles.distributor,\r\n            \"Only Distributor Can call this function.\"\r\n        );\r\n        return MedicineDtoC[msg.sender].length;\r\n    }\r\n\r\n    function getBatchIdByIndexDC(uint index) external view returns(address packageID) {\r\n        require(\r\n            userInfo[msg.sender].role == roles.distributor,\r\n            \"Only Distributor Can call this function.\"\r\n        );\r\n        return MedicineDtoC[msg.sender][index];\r\n    }\r\n\r\n    function getSubContractDC(address _address) external view returns (address SubContractDP) {\r\n        return MedicineDtoCTxContract[_address];\r\n    }\r\n    \r\n    \r\n    ///////////////  Customer  ///////////////\r\n    \r\n    \r\n    function customerReceivedMedicine(\r\n        address _address,\r\n        address cid\r\n    ) external {\r\n        require(\r\n            userInfo[msg.sender].role == roles.customer,\r\n            \"Only Customer Can call this function.\"\r\n        );\r\n        medicineRecievedAtCustomer(_address, cid);\r\n    }\r\n\r\n    function updateStatus(\r\n        address _address,\r\n        uint Status\r\n    ) external {\r\n        require(\r\n            userInfo[msg.sender].role == roles.customer &&\r\n            msg.sender == Medicine(_address).getWDC()[2],\r\n            \"Only Customer or current owner of package can call this function\"\r\n        );\r\n        require(sale[_address] == salestatus(1), \"Medicine Must be at Customer\");\r\n        \r\n        updateSaleStatus(_address, Status);\r\n    }\r\n\r\n    function getSalesInfo(\r\n        address _address\r\n    ) external\r\n    view\r\n    returns(\r\n        uint Status \r\n    ){\r\n        return salesInfo(_address);\r\n    }\r\n\r\n    \r\n    function getBatchesCountC() external view returns(uint count) {\r\n        require(\r\n            userInfo[msg.sender].role == roles.customer,\r\n            \"Only Wholesaler or current owner of package can call this function\"\r\n        );\r\n        return  MedicineBatchAtCustomer[msg.sender].length;\r\n    }\r\n\r\n    function getBatchIdByIndexC(uint index) external view returns(address _address) {\r\n        require(\r\n            userInfo[msg.sender].role == roles.customer,\r\n            \"Only Wholesaler or current owner of package can call this function\"\r\n        );\r\n        return MedicineBatchAtCustomer[msg.sender][index];\r\n    }\r\n    \r\n    // function verify(address p, bytes32 hash, uint8 v, bytes32 r, bytes32 s) external view returns(bool) {\r\n    //     return ecrecover(hash, v, r, s) == p;\r\n    // }\r\n}    \r\n    ",
  "sourcePath": "C:\\Users\\dell\\Downloads\\college_project\\Pharma-Chain\\blockchain\\contracts\\SupplyChain.sol",
  "compiler": {
    "name": "solc",
    "version": "0.6.6+commit.6c089d02.Emscripten.clang"
  },
  "schemaVersion": "3.4.16",
  "updatedAt": "2026-03-03T11:44:25.165Z",
  "networkType": "ethereum",
  "devdoc": {
    "methods": {}
  },
  "userdoc": {
    "methods": {
      "customerReceivedMedicine(address,address)": {
        "notice": "////////////  Customer  ///////////////"
      },
      "distributorReceivedMedicine(address,address)": {
        "notice": "////////////  Distributor  ///////////////"
      },
      "supplierCreatesRawPackage(bytes32,uint256,address,address)": {
        "notice": "//////////// Supplier //////////////////////"
      },
      "transporterHandlePackage(address,uint256,address)": {
        "notice": "////////////  Transporter ///////////////"
      },
      "wholesalerReceivedMedicine(address)": {
        "notice": "////////////  Wholesaler  ///////////////"
      }
    },
    "notice": "/ New supply chain : supplier -> transporter -> manufacturer -> transporter -> whole-saler -> transporter -> distributor -> transporter -> customer/hospital/pharmacy"
  }
}