{
  "contractName": "Transporter",
  "abi": [
    {
      "inputs": [
        {
          "internalType": "address",
          "name": "_addr",
          "type": "address"
        },
        {
          "internalType": "uint256",
          "name": "transportertype",
          "type": "uint256"
        },
        {
          "internalType": "address",
          "name": "cid",
          "type": "address"
        }
      ],
      "name": "handlePackage",
      "outputs": [],
      "stateMutability": "nonpayable",
      "type": "function"
    }
  ],
  "bytecode": "0x608060405234801561001057600080fd5b5061022d806100206000396000f3fe608060405234801561001057600080fd5b506004361061002b5760003560e01c80636f41507c14610030575b600080fd5b6100666004803603606081101561004657600080fd5b506001600160a01b03813581169160208101359160409091013516610068565b005b81600114156100d5576040805163638e9a3d60e01b815233600482015290516001600160a01b0385169163638e9a3d91602480830192600092919082900301818387803b1580156100b857600080fd5b505af11580156100cc573d6000803e3d6000fd5b505050506101f2565b8160021415610125576040805163ac42a41560e01b815233600482015290516001600160a01b0385169163ac42a41591602480830192600092919082900301818387803b1580156100b857600080fd5b816003141561017f5760408051630887851b60e31b81526001600160a01b03858116600483015233602483015291519183169163443c28d89160448082019260009290919082900301818387803b1580156100b857600080fd5b81600414156101f2576040805163298abd8d60e11b81526001600160a01b0385811660048301523360248301529151918316916353157b1a9160448082019260009290919082900301818387803b1580156101d957600080fd5b505af11580156101ed573d6000803e3d6000fd5b505050505b50505056fea26469706673582212202d726c35a849c1a11926fbb83bfae3488760fffc2f0b719bad9b833320a92c5a64736f6c63430006060033",
  "immutableReferences": {},
  "source": "pragma solidity ^0.6.6;\r\n\r\nimport './RawMaterial.sol';\r\nimport './Medicine.sol';\r\nimport './MedicineW_D.sol';\r\nimport './MedicineD_C.sol';\r\n\r\ncontract Transporter {\r\n    \r\n    function handlePackage(\r\n        address _addr,\r\n        uint transportertype,\r\n        address cid\r\n        ) public {\r\n\r\n        if(transportertype == 1) { \r\n            /// Supplier -> Manufacturer\r\n            RawMaterial(_addr).pickPackage(msg.sender);\r\n        } else if(transportertype == 2) { \r\n            /// Manufacturer -> Wholesaler\r\n            Medicine(_addr).pickMedicine(msg.sender);\r\n        } else if(transportertype == 3) {   \r\n            // Wholesaler to Distributer\r\n            MedicineW_D(cid).pickWD(_addr, msg.sender);\r\n        } else if(transportertype == 4) {   \r\n            // Distrubuter to Customer\r\n            MedicineD_C(cid).pickDC(_addr, msg.sender);\r\n        }\r\n    }\r\n    \r\n    \r\n}",
  "sourcePath": "C:\\Users\\dell\\Downloads\\college_project\\Pharma-Chain\\blockchain\\contracts\\Transporter.sol",
  "compiler": {
    "name": "solc",
    "version": "0.6.6+commit.6c089d02.Emscripten.clang"
  },
  "schemaVersion": "3.4.16",
  "updatedAt": "2026-03-03T11:44:19.151Z",
  "devdoc": {
    "methods": {}
  },
  "userdoc": {
    "methods": {}
  }
}