{
  "contractName": "Transactions",
  "abi": [
    {
      "inputs": [
        {
          "internalType": "address",
          "name": "_creator",
          "type": "address"
        }
      ],
      "stateMutability": "nonpayable",
      "type": "constructor"
    },
    {
      "anonymous": false,
      "inputs": [
        {
          "indexed": false,
          "internalType": "bytes32",
          "name": "_txnHash",
          "type": "bytes32"
        },
        {
          "indexed": false,
          "internalType": "address",
          "name": "_from",
          "type": "address"
        },
        {
          "indexed": false,
          "internalType": "address",
          "name": "_to",
          "type": "address"
        },
        {
          "indexed": false,
          "internalType": "bytes32",
          "name": "_prev",
          "type": "bytes32"
        },
        {
          "indexed": false,
          "internalType": "uint256",
          "name": "_timestamp",
          "type": "uint256"
        },
        {
          "indexed": false,
          "internalType": "string",
          "name": "_latitude",
          "type": "string"
        },
        {
          "indexed": false,
          "internalType": "string",
          "name": "_longitude",
          "type": "string"
        }
      ],
      "name": "txnCreated",
      "type": "event"
    },
    {
      "inputs": [
        {
          "internalType": "uint256",
          "name": "",
          "type": "uint256"
        }
      ],
      "name": "transactions",
      "outputs": [
        {
          "internalType": "bytes32",
          "name": "txnHash",
          "type": "bytes32"
        },
        {
          "internalType": "address",
          "name": "fromAddr",
          "type": "address"
        },
        {
          "internalType": "address",
          "name": "toAddr",
          "type": "address"
        },
        {
          "internalType": "bytes32",
          "name": "prevTxn",
          "type": "bytes32"
        },
        {
          "internalType": "string",
          "name": "latitude",
          "type": "string"
        },
        {
          "internalType": "string",
          "name": "longitude",
          "type": "string"
        },
        {
          "internalType": "uint256",
          "name": "timestamp",
          "type": "uint256"
        }
      ],
      "stateMutability": "view",
      "type": "function"
    },
    {
      "inputs": [],
      "name": "txnCount",
      "outputs": [
        {
          "internalType": "uint256",
          "name": "",
          "type": "uint256"
        }
      ],
      "stateMutability": "view",
      "type": "function"
    },
    {
      "inputs": [],
      "name": "getAllTransactions",
      "outputs": [
        {
          "components": [
            {
              "internalType": "bytes32",
              "name": "txnHash",
              "type": "bytes32"
            },
            {
              "internalType": "address",
              "name": "fromAddr",
              "type": "address"
            },
            {
              "internalType": "address",
              "name": "toAddr",
              "type": "address"
            },
            {
              "internalType": "bytes32",
              "name": "prevTxn",
              "type": "bytes32"
            },
            {
              "internalType": "string",
              "name": "latitude",
              "type": "string"
            },
            {
              "internalType": "string",
              "name": "longitude",
              "type": "string"
            },
            {
              "internalType": "uint256",
              "name": "timestamp",
              "type": "uint256"
            }
          ],
          "internalType": "struct Transactions.txns[]",
          "name": "",
          "type": "tuple[]"
        }
      ],
      "stateMutability": "view",
      "type": "function"
    }
  ],
  "bytecode": "0x6080604052600060025534801561001557600080fd5b506040516106a13803806106a183398101604081905261003491610059565b600080546001600160a01b0319166001600160a01b0392909216919091179055610087565b60006020828403121561006a578081fd5b81516001600160a01b0381168114610080578182fd5b9392505050565b61060b806100966000396000f3fe608060405234801561001057600080fd5b50600436106100415760003560e01c806327506f531461004657806378ce1365146100645780639ace38c214610079575b600080fd5b61004e61009f565b60405161005b91906104a3565b60405180910390f35b61006c6102a6565b60405161005b91906105cc565b61008c610087366004610440565b6102ac565b60405161005b979695949392919061056c565b600254606090818167ffffffffffffffff811180156100bd57600080fd5b506040519080825280602002602001820160405280156100f757816020015b6100e4610405565b8152602001906001900390816100dc5790505b50905060005b8281101561029f57600081815260016020818152604092839020835160e08101855281548152818401546001600160a01b0390811682850152600280840154909116828701526003830154606083015260048301805487516101009782161597909702600019011691909104601f81018590048502860185019096528585529094919360808601939092908301828280156101d95780601f106101ae576101008083540402835291602001916101d9565b820191906000526020600020905b8154815290600101906020018083116101bc57829003601f168201915b505050918352505060058201805460408051602060026001851615610100026000190190941693909304601f810184900484028201840190925281815293820193929183018282801561026d5780601f106102425761010080835404028352916020019161026d565b820191906000526020600020905b81548152906001019060200180831161025057829003601f168201915b5050505050815260200160068201548152505082828151811061028c57fe5b60209081029190910101526001016100fd565b5091505090565b60025481565b60016020818152600092835260409283902080548184015460028084015460038501546004860180548a516101009a8216159a909a02600019011693909304601f810188900488028901880190995288885293976001600160a01b039384169793909116959394938301828280156103655780601f1061033a57610100808354040283529160200191610365565b820191906000526020600020905b81548152906001019060200180831161034857829003601f168201915b5050505060058301805460408051602060026001851615610100026000190190941693909304601f81018490048402820184019092528181529495949350908301828280156103f55780601f106103ca576101008083540402835291602001916103f5565b820191906000526020600020905b8154815290600101906020018083116103d857829003601f168201915b5050505050908060060154905087565b6040805160e08101825260008082526020820181905291810182905260608082018390526080820181905260a082015260c081019190915290565b600060208284031215610451578081fd5b5035919050565b60008151808452815b8181101561047d57602081850181015186830182015201610461565b8181111561048e5782602083870101525b50601f01601f19169290920160200192915050565b60208082528251828201819052600091906040908185019080840286018301878501865b8381101561055e57888303603f19018552815180518452878101516001600160a01b03908116898601528782015116878501526060808201519085015260808082015160e0828701819052919061052083880182610458565b91505060a09150818301518682038388015261053c8282610458565b60c09485015197909401969096525050948701949250908601906001016104c7565b509098975050505050505050565b8781526001600160a01b038781166020830152861660408201526060810185905260e0608082018190526000906105a590830186610458565b82810360a08401526105b78186610458565b9150508260c083015298975050505050505050565b9081526020019056fea2646970667358221220ff8e17c21f1123467533f62f94e24496879b48feeea0603e6e19cd560bd8825764736f6c63430006060033",
  "immutableReferences": {},
  "source": "pragma solidity ^0.6.6;\r\npragma experimental ABIEncoderV2;\r\n\r\ncontract Transactions {\r\n    \r\n    address Creator;\r\n    \r\n    struct txns {\r\n        bytes32 txnHash;\r\n        address fromAddr;\r\n        address toAddr;\r\n        bytes32 prevTxn;\r\n        string latitude;\r\n        string longitude;\r\n        uint timestamp;\r\n    }\r\n    \r\n    mapping(uint => txns) public transactions;\r\n    uint public txnCount = 0;\r\n    \r\n    constructor(address _creator) public {\r\n        Creator = _creator;\r\n    }\r\n    \r\n    event txnCreated(bytes32 _txnHash, address _from, address _to, bytes32 _prev, uint _timestamp, string _latitude, string _longitude);\r\n    \r\n    /*\r\n    function createTxnEntry(bytes32 _txnHash, address _from, address _to, bytes32 _prev, string memory _latitude, string memory _longitude) public {\r\n        uint _timestamp = now;\r\n        if(txnCount == 0) {\r\n            transactions[txnCount] = txns(_txnHash, _from, _to, _prev, _latitude, _longitude, _timestamp);\r\n        } else {\r\n            require(transactions[txnCount - 1].txnHash == _prev, \"Transaction error occurred!\");\r\n            transactions[txnCount] = txns(_txnHash, _from, _to, _prev, _latitude, _longitude, _timestamp);\r\n        }\r\n        txnCount += 1;\r\n        emit txnCreated(_txnHash, _from, _to, _prev, _timestamp, _latitude, _longitude);\r\n    }\r\n    */\r\n\r\n    function getAllTransactions() public view returns(txns[] memory) {\r\n        uint len = txnCount;\r\n        txns[] memory ret = new txns[](len);\r\n        for (uint i = 0; i < len; i++) {\r\n            ret[i] = transactions[i];\r\n        }\r\n        return ret;    \r\n    }\r\n}",
  "sourcePath": "C:\\Users\\dell\\Downloads\\college_project\\Pharma-Chain\\blockchain\\contracts\\Transactions.sol",
  "compiler": {
    "name": "solc",
    "version": "0.6.6+commit.6c089d02.Emscripten.clang"
  },
  "schemaVersion": "3.4.16",
  "updatedAt": "2026-03-03T11:44:19.148Z",
  "devdoc": {
    "methods": {}
  },
  "userdoc": {
    "methods": {}
  }
}