{
  "contractName": "Wholesaler",
  "abi": [
    {
      "inputs": [],
      "stateMutability": "nonpayable",
      "type": "constructor"
    },
    {
      "inputs": [
        {
          "internalType": "address",
          "name": "",
          "type": "address"
        },
        {
          "internalType": "uint256",
          "name": "",
          "type": "uint256"
        }
      ],
      "name": "MedicineWtoD",
      "outputs": [
        {
          "internalType": "address",
          "name": "",
          "type": "address"
        }
      ],
      "stateMutability": "view",
      "type": "function"
    },
    {
      "inputs": [
        {
          "internalType": "address",
          "name": "",
          "type": "address"
        }
      ],
      "name": "MedicineWtoDTxContract",
      "outputs": [
        {
          "internalType": "address",
          "name": "",
          "type": "address"
        }
      ],
      "stateMutability": "view",
      "type": "function"
    },
    {
      "inputs": [
        {
          "internalType": "address",
          "name": "",
          "type": "address"
        },
        {
          "internalType": "uint256",
          "name": "",
          "type": "uint256"
        }
      ],
      "name": "MedicinesAtWholesaler",
      "outputs": [
        {
          "internalType": "address",
          "name": "",
          "type": "address"
        }
      ],
      "stateMutability": "view",
      "type": "function"
    },
    {
      "inputs": [
        {
          "internalType": "address",
          "name": "_address",
          "type": "address"
        }
      ],
      "name": "medicineRecievedAtWholesaler",
      "outputs": [],
      "stateMutability": "nonpayable",
      "type": "function"
    },
    {
      "inputs": [
        {
          "internalType": "address",
          "name": "_address",
          "type": "address"
        },
        {
          "internalType": "address",
          "name": "transporter",
          "type": "address"
        },
        {
          "internalType": "address",
          "name": "receiver",
          "type": "address"
        }
      ],
      "name": "transferMedicineWtoD",
      "outputs": [],
      "stateMutability": "nonpayable",
      "type": "function"
    }
  ],
  "bytecode": "0x608060405234801561001057600080fd5b5061072a806100206000396000f3fe608060405234801561001057600080fd5b50600436106100575760003560e01c8063050e70db1461005c578063412afbaf146100a45780636e6c6c18146100d0578063b0fc028d146100f8578063f06822d81461011e575b600080fd5b6100886004803603604081101561007257600080fd5b506001600160a01b038135169060200135610156565b604080516001600160a01b039092168252519081900360200190f35b610088600480360360408110156100ba57600080fd5b506001600160a01b03813516906020013561018b565b6100f6600480360360208110156100e657600080fd5b50356001600160a01b03166101a4565b005b6100886004803603602081101561010e57600080fd5b50356001600160a01b0316610261565b6100f66004803603606081101561013457600080fd5b506001600160a01b03813581169160208101358216916040909101351661027c565b6001602052816000526040600020818154811061016f57fe5b6000918252602090912001546001600160a01b03169150829050565b6000602052816000526040600020818154811061016f57fe5b604080516307fb74db60e21b815233600482015290516000916001600160a01b03841691631fedd36c9160248082019260209290919082900301818787803b1580156101ef57600080fd5b505af1158015610203573d6000803e3d6000fd5b505050506040513d602081101561021957600080fd5b50519050600181141561025d57336000908152602081815260408220805460018101825590835291200180546001600160a01b0319166001600160a01b0384161790555b5050565b6002602052600090815260409020546001600160a01b031681565b60008333848460405161028e9061032f565b6001600160a01b039485168152928416602084015290831660408084019190915292166060820152905190819003608001906000f0801580156102d5573d6000803e3d6000fd5b5033600090815260016020818152604080842080549384018155845281842090920180546001600160a01b039586166001600160a01b03199182168117909255989094168352600290529020805490951617909355505050565b6103b88061033d8339019056fe608060405234801561001057600080fd5b506040516103b83803806103b88339818101604052608081101561003357600080fd5b50805160208201516040830151606090930151600080546001600160a01b03199081166001600160a01b03948516908117835560018054831696861696909617909555600280548216909517909455600380548516958416959095179094556004805490931691161760ff60a01b191690556103039081906100b590396000f3fe608060405234801561001057600080fd5b50600436106100415760003560e01c8063443c28d814610046578063d2f3fcc714610076578063d7dcbe3b14610090575b600080fd5b6100746004803603604081101561005c57600080fd5b506001600160a01b03813581169160200135166100be565b005b61007e610190565b60408051918252519081900360200190f35b610074600480360360408110156100a657600080fd5b506001600160a01b03813581169160200135166101b0565b6003546001600160a01b0382811691161461010a5760405162461bcd60e51b815260040180806020018281038252602f81526020018061029f602f913960400191505060405180910390fd5b6004805460ff60a01b1916600160a01b178082556002546040805163f5c0e38360e01b81526001600160a01b03938416948101949094529082166024840152519084169163f5c0e38391604480830192600092919082900301818387803b15801561017457600080fd5b505af1158015610188573d6000803e3d6000fd5b505050505050565b600454600090600160a01b900460ff1660028111156101ab57fe5b905090565b6004546001600160a01b038281169116146101fc5760405162461bcd60e51b815260040180806020018281038252603081526020018061026f6030913960400191505060405180910390fd5b600480546002919060ff60a01b1916600160a01b830217905550816001600160a01b03166393a668b7826040518263ffffffff1660e01b815260040180826001600160a01b03166001600160a01b03168152602001915050600060405180830381600087803b15801561017457600080fdfe4f6e6c79204173736f6369617465642072656365697665722063616e2063616c6c20746869732066756e6374696f6e2e4f6e6c79204173736f63696174656420736869707065722063616e2063616c6c20746869732066756e6374696f6e2ea2646970667358221220a91af15acd122dd2cdcf48ce21f2bf2923a51463fd255bb70b4f751f0ae9256464736f6c63430006060033a2646970667358221220124927bd04eb53a00584b5f8ebc8824d06634ad18ab85dd4a44c0145d28a745764736f6c63430006060033",
  "immutableReferences": {},
  "source": "pragma solidity ^0.6.6;\r\n\r\nimport './MedicineW_D.sol';\r\nimport './Medicine.sol';\r\n\r\ncontract Wholesaler {\r\n    \r\n    mapping(address => address[]) public MedicinesAtWholesaler;\r\n    mapping(address => address[]) public MedicineWtoD;\r\n    mapping(address => address) public MedicineWtoDTxContract;\r\n    \r\n    constructor() public {}\r\n    \r\n    function medicineRecievedAtWholesaler(\r\n        address _address\r\n    ) public {\r\n\r\n        uint rtype = Medicine(_address).receivedMedicine(msg.sender);\r\n        if(rtype == 1){\r\n            MedicinesAtWholesaler[msg.sender].push(_address);\r\n        }\r\n    }\r\n    \r\n    function transferMedicineWtoD(\r\n        address _address,\r\n        address transporter,\r\n        address receiver\r\n    ) public {\r\n        \r\n        MedicineW_D wd = new MedicineW_D(\r\n            _address,\r\n            msg.sender,\r\n            transporter,\r\n            receiver\r\n        );\r\n        MedicineWtoD[msg.sender].push(address(wd));\r\n        MedicineWtoDTxContract[_address] = address(wd);\r\n    }\r\n}",
  "sourcePath": "C:\\Users\\dell\\Downloads\\college_project\\Pharma-Chain\\blockchain\\contracts\\Wholesaler.sol",
  "compiler": {
    "name": "solc",
    "version": "0.6.6+commit.6c089d02.Emscripten.clang"
  },
  "schemaVersion": "3.4.16",
  "updatedAt": "2026-03-03T11:44:19.153Z",
  "devdoc": {
    "methods": {}
  },
  "userdoc": {
    "methods": {}
  }
}